{
    "contractName": "WhitelistSale",
    "abi": [
        {
            "inputs": [
                {
                    "internalType": "uint256",
                    "name": "_maxQuantityNFT",
                    "type": "uint256"
                }
            ],
            "stateMutability": "nonpayable",
            "type": "constructor"
        },
        {
            "inputs": [
                {
                    "internalType": "address",
                    "name": "account",
                    "type": "address"
                }
            ],
            "name": "AddressAlreadyAddedWhitelist",
            "type": "error"
        },
        {
            "inputs": [
                {
                    "internalType": "address",
                    "name": "account",
                    "type": "address"
                }
            ],
            "name": "AddressNotInWhitelist",
            "type": "error"
        },
        {
            "inputs": [
                {
                    "internalType": "address",
                    "name": "sender",
                    "type": "address"
                },
                {
                    "internalType": "uint256",
                    "name": "tokenId",
                    "type": "uint256"
                },
                {
                    "internalType": "address",
                    "name": "owner",
                    "type": "address"
                }
            ],
            "name": "ERC721IncorrectOwner",
            "type": "error"
        },
        {
            "inputs": [
                {
                    "internalType": "address",
                    "name": "operator",
                    "type": "address"
                },
                {
                    "internalType": "uint256",
                    "name": "tokenId",
                    "type": "uint256"
                }
            ],
            "name": "ERC721InsufficientApproval",
            "type": "error"
        },
        {
            "inputs": [
                {
                    "internalType": "address",
                    "name": "approver",
                    "type": "address"
                }
            ],
            "name": "ERC721InvalidApprover",
            "type": "error"
        },
        {
            "inputs": [
                {
                    "internalType": "address",
                    "name": "operator",
                    "type": "address"
                }
            ],
            "name": "ERC721InvalidOperator",
            "type": "error"
        },
        {
            "inputs": [
                {
                    "internalType": "address",
                    "name": "owner",
                    "type": "address"
                }
            ],
            "name": "ERC721InvalidOwner",
            "type": "error"
        },
        {
            "inputs": [
                {
                    "internalType": "address",
                    "name": "receiver",
                    "type": "address"
                }
            ],
            "name": "ERC721InvalidReceiver",
            "type": "error"
        },
        {
            "inputs": [
                {
                    "internalType": "address",
                    "name": "sender",
                    "type": "address"
                }
            ],
            "name": "ERC721InvalidSender",
            "type": "error"
        },
        {
            "inputs": [
                {
                    "internalType": "uint256",
                    "name": "tokenId",
                    "type": "uint256"
                }
            ],
            "name": "ERC721NonexistentToken",
            "type": "error"
        },
        {
            "inputs": [
                {
                    "internalType": "uint256",
                    "name": "amount",
                    "type": "uint256"
                },
                {
                    "internalType": "uint256",
                    "name": "available",
                    "type": "uint256"
                }
            ],
            "name": "InsufficientBalance",
            "type": "error"
        },
        {
            "inputs": [
                {
                    "internalType": "address",
                    "name": "account",
                    "type": "address"
                }
            ],
            "name": "InvalidAddress",
            "type": "error"
        },
        {
            "inputs": [
                {
                    "internalType": "uint256",
                    "name": "amount",
                    "type": "uint256"
                }
            ],
            "name": "InvalidAmount",
            "type": "error"
        },
        {
            "inputs": [
                {
                    "internalType": "uint256",
                    "name": "price",
                    "type": "uint256"
                }
            ],
            "name": "InvalidPrice",
            "type": "error"
        },
        {
            "inputs": [
                {
                    "internalType": "address",
                    "name": "owner",
                    "type": "address"
                }
            ],
            "name": "OwnableInvalidOwner",
            "type": "error"
        },
        {
            "inputs": [
                {
                    "internalType": "address",
                    "name": "account",
                    "type": "address"
                }
            ],
            "name": "OwnableUnauthorizedAccount",
            "type": "error"
        },
        {
            "inputs": [
                {
                    "internalType": "uint256",
                    "name": "quantity",
                    "type": "uint256"
                }
            ],
            "name": "WalletNFTLimitExceeded",
            "type": "error"
        },
        {
            "inputs": [],
            "name": "WithdrawFailed",
            "type": "error"
        },
        {
            "anonymous": false,
            "inputs": [
                {
                    "indexed": true,
                    "internalType": "address",
                    "name": "owner",
                    "type": "address"
                },
                {
                    "indexed": true,
                    "internalType": "address",
                    "name": "approved",
                    "type": "address"
                },
                {
                    "indexed": true,
                    "internalType": "uint256",
                    "name": "tokenId",
                    "type": "uint256"
                }
            ],
            "name": "Approval",
            "type": "event"
        },
        {
            "anonymous": false,
            "inputs": [
                {
                    "indexed": true,
                    "internalType": "address",
                    "name": "owner",
                    "type": "address"
                },
                {
                    "indexed": true,
                    "internalType": "address",
                    "name": "operator",
                    "type": "address"
                },
                {
                    "indexed": false,
                    "internalType": "bool",
                    "name": "approved",
                    "type": "bool"
                }
            ],
            "name": "ApprovalForAll",
            "type": "event"
        },
        {
            "anonymous": false,
            "inputs": [
                {
                    "indexed": true,
                    "internalType": "address",
                    "name": "account",
                    "type": "address"
                },
                {
                    "indexed": false,
                    "internalType": "uint256",
                    "name": "tokenId",
                    "type": "uint256"
                }
            ],
            "name": "NFTMinted",
            "type": "event"
        },
        {
            "anonymous": false,
            "inputs": [
                {
                    "indexed": true,
                    "internalType": "address",
                    "name": "previousOwner",
                    "type": "address"
                },
                {
                    "indexed": true,
                    "internalType": "address",
                    "name": "newOwner",
                    "type": "address"
                }
            ],
            "name": "OwnershipTransferred",
            "type": "event"
        },
        {
            "anonymous": false,
            "inputs": [
                {
                    "indexed": true,
                    "internalType": "address",
                    "name": "from",
                    "type": "address"
                },
                {
                    "indexed": true,
                    "internalType": "address",
                    "name": "to",
                    "type": "address"
                },
                {
                    "indexed": true,
                    "internalType": "uint256",
                    "name": "tokenId",
                    "type": "uint256"
                }
            ],
            "name": "Transfer",
            "type": "event"
        },
        {
            "anonymous": false,
            "inputs": [
                {
                    "indexed": true,
                    "internalType": "address",
                    "name": "account",
                    "type": "address"
                }
            ],
            "name": "WhitelistAdded",
            "type": "event"
        },
        {
            "anonymous": false,
            "inputs": [
                {
                    "indexed": true,
                    "internalType": "address",
                    "name": "account",
                    "type": "address"
                }
            ],
            "name": "WhitelistRemoved",
            "type": "event"
        },
        {
            "anonymous": false,
            "inputs": [
                {
                    "indexed": true,
                    "internalType": "address",
                    "name": "account",
                    "type": "address"
                },
                {
                    "indexed": false,
                    "internalType": "uint256",
                    "name": "amount",
                    "type": "uint256"
                }
            ],
            "name": "Withdrawn",
            "type": "event"
        },
        {
            "inputs": [
                {
                    "internalType": "address",
                    "name": "",
                    "type": "address"
                }
            ],
            "name": "NFTPerWallet",
            "outputs": [
                {
                    "internalType": "uint256",
                    "name": "",
                    "type": "uint256"
                }
            ],
            "stateMutability": "view",
            "type": "function"
        },
        {
            "inputs": [
                {
                    "internalType": "address",
                    "name": "account",
                    "type": "address"
                }
            ],
            "name": "addWhitelist",
            "outputs": [],
            "stateMutability": "nonpayable",
            "type": "function"
        },
        {
            "inputs": [
                {
                    "internalType": "address",
                    "name": "to",
                    "type": "address"
                },
                {
                    "internalType": "uint256",
                    "name": "tokenId",
                    "type": "uint256"
                }
            ],
            "name": "approve",
            "outputs": [],
            "stateMutability": "nonpayable",
            "type": "function"
        },
        {
            "inputs": [
                {
                    "internalType": "address",
                    "name": "owner",
                    "type": "address"
                }
            ],
            "name": "balanceOf",
            "outputs": [
                {
                    "internalType": "uint256",
                    "name": "",
                    "type": "uint256"
                }
            ],
            "stateMutability": "view",
            "type": "function"
        },
        {
            "inputs": [
                {
                    "internalType": "address",
                    "name": "account",
                    "type": "address"
                }
            ],
            "name": "checkWhitelist",
            "outputs": [
                {
                    "internalType": "bool",
                    "name": "",
                    "type": "bool"
                }
            ],
            "stateMutability": "view",
            "type": "function"
        },
        {
            "inputs": [
                {
                    "internalType": "uint256",
                    "name": "tokenId",
                    "type": "uint256"
                }
            ],
            "name": "getApproved",
            "outputs": [
                {
                    "internalType": "address",
                    "name": "",
                    "type": "address"
                }
            ],
            "stateMutability": "view",
            "type": "function"
        },
        {
            "inputs": [],
            "name": "getBalance",
            "outputs": [
                {
                    "internalType": "uint256",
                    "name": "",
                    "type": "uint256"
                }
            ],
            "stateMutability": "view",
            "type": "function"
        },
        {
            "inputs": [
                {
                    "internalType": "address",
                    "name": "owner",
                    "type": "address"
                },
                {
                    "internalType": "address",
                    "name": "operator",
                    "type": "address"
                }
            ],
            "name": "isApprovedForAll",
            "outputs": [
                {
                    "internalType": "bool",
                    "name": "",
                    "type": "bool"
                }
            ],
            "stateMutability": "view",
            "type": "function"
        },
        {
            "inputs": [],
            "name": "maxQuantityNFT",
            "outputs": [
                {
                    "internalType": "uint256",
                    "name": "",
                    "type": "uint256"
                }
            ],
            "stateMutability": "view",
            "type": "function"
        },
        {
            "inputs": [
                {
                    "internalType": "uint256",
                    "name": "quantity",
                    "type": "uint256"
                }
            ],
            "name": "mint",
            "outputs": [],
            "stateMutability": "payable",
            "type": "function"
        },
        {
            "inputs": [],
            "name": "name",
            "outputs": [
                {
                    "internalType": "string",
                    "name": "",
                    "type": "string"
                }
            ],
            "stateMutability": "view",
            "type": "function"
        },
        {
            "inputs": [],
            "name": "owner",
            "outputs": [
                {
                    "internalType": "address",
                    "name": "",
                    "type": "address"
                }
            ],
            "stateMutability": "view",
            "type": "function"
        },
        {
            "inputs": [
                {
                    "internalType": "uint256",
                    "name": "tokenId",
                    "type": "uint256"
                }
            ],
            "name": "ownerOf",
            "outputs": [
                {
                    "internalType": "address",
                    "name": "",
                    "type": "address"
                }
            ],
            "stateMutability": "view",
            "type": "function"
        },
        {
            "inputs": [
                {
                    "internalType": "address",
                    "name": "account",
                    "type": "address"
                }
            ],
            "name": "removeWhitelist",
            "outputs": [],
            "stateMutability": "nonpayable",
            "type": "function"
        },
        {
            "inputs": [],
            "name": "renounceOwnership",
            "outputs": [],
            "stateMutability": "nonpayable",
            "type": "function"
        },
        {
            "inputs": [
                {
                    "internalType": "address",
                    "name": "from",
                    "type": "address"
                },
                {
                    "internalType": "address",
                    "name": "to",
                    "type": "address"
                },
                {
                    "internalType": "uint256",
                    "name": "tokenId",
                    "type": "uint256"
                }
            ],
            "name": "safeTransferFrom",
            "outputs": [],
            "stateMutability": "nonpayable",
            "type": "function"
        },
        {
            "inputs": [
                {
                    "internalType": "address",
                    "name": "from",
                    "type": "address"
                },
                {
                    "internalType": "address",
                    "name": "to",
                    "type": "address"
                },
                {
                    "internalType": "uint256",
                    "name": "tokenId",
                    "type": "uint256"
                },
                {
                    "internalType": "bytes",
                    "name": "data",
                    "type": "bytes"
                }
            ],
            "name": "safeTransferFrom",
            "outputs": [],
            "stateMutability": "nonpayable",
            "type": "function"
        },
        {
            "inputs": [
                {
                    "internalType": "address",
                    "name": "operator",
                    "type": "address"
                },
                {
                    "internalType": "bool",
                    "name": "approved",
                    "type": "bool"
                }
            ],
            "name": "setApprovalForAll",
            "outputs": [],
            "stateMutability": "nonpayable",
            "type": "function"
        },
        {
            "inputs": [
                {
                    "internalType": "bytes4",
                    "name": "interfaceId",
                    "type": "bytes4"
                }
            ],
            "name": "supportsInterface",
            "outputs": [
                {
                    "internalType": "bool",
                    "name": "",
                    "type": "bool"
                }
            ],
            "stateMutability": "view",
            "type": "function"
        },
        {
            "inputs": [],
            "name": "symbol",
            "outputs": [
                {
                    "internalType": "string",
                    "name": "",
                    "type": "string"
                }
            ],
            "stateMutability": "view",
            "type": "function"
        },
        {
            "inputs": [],
            "name": "tokenId",
            "outputs": [
                {
                    "internalType": "uint256",
                    "name": "",
                    "type": "uint256"
                }
            ],
            "stateMutability": "view",
            "type": "function"
        },
        {
            "inputs": [
                {
                    "internalType": "uint256",
                    "name": "tokenId",
                    "type": "uint256"
                }
            ],
            "name": "tokenURI",
            "outputs": [
                {
                    "internalType": "string",
                    "name": "",
                    "type": "string"
                }
            ],
            "stateMutability": "view",
            "type": "function"
        },
        {
            "inputs": [
                {
                    "internalType": "address",
                    "name": "from",
                    "type": "address"
                },
                {
                    "internalType": "address",
                    "name": "to",
                    "type": "address"
                },
                {
                    "internalType": "uint256",
                    "name": "tokenId",
                    "type": "uint256"
                }
            ],
            "name": "transferFrom",
            "outputs": [],
            "stateMutability": "nonpayable",
            "type": "function"
        },
        {
            "inputs": [
                {
                    "internalType": "address",
                    "name": "newOwner",
                    "type": "address"
                }
            ],
            "name": "transferOwnership",
            "outputs": [],
            "stateMutability": "nonpayable",
            "type": "function"
        },
        {
            "inputs": [
                {
                    "internalType": "address",
                    "name": "",
                    "type": "address"
                }
            ],
            "name": "whitelists",
            "outputs": [
                {
                    "internalType": "bool",
                    "name": "",
                    "type": "bool"
                }
            ],
            "stateMutability": "view",
            "type": "function"
        },
        {
            "inputs": [],
            "name": "withdraw",
            "outputs": [],
            "stateMutability": "payable",
            "type": "function"
        },
        {
            "inputs": [
                {
                    "internalType": "uint256",
                    "name": "amount",
                    "type": "uint256"
                }
            ],
            "name": "withdrawAmount",
            "outputs": [],
            "stateMutability": "payable",
            "type": "function"
        }
    ],
    "bytecode": "60806040523461038b5761168f6020813803918261001c8161038f565b93849283398101031261038b5751610034604061038f565b90600882526743617073746f6e6560c01b6020830152610054604061038f565b600381526204341560ec1b602082015282519091906001600160401b038111610294575f54600181811c91168015610381575b602082101461027657601f8111610314575b506020601f82116001146102b357819293945f926102a8575b50508160011b915f199060031b1c1916175f555b81516001600160401b03811161029457600154600181811c9116801561028a575b602082101461027657601f8111610208575b50602092601f82116001146101a757928192935f9261019c575b50508160011b915f199060031b1c1916176001555b33156101895760068054336001600160a01b0319821681179092556040519291906001600160a01b03167f8be0079c531659141344cd1fd0a4f28419497f9722a3daafe3b4186f6b6457e05f80a35f6008556007556112da90816103b58239f35b631e4fbdf760e01b5f525f60045260245ffd5b015190505f80610113565b601f1982169360015f52805f20915f5b8681106101f057508360019596106101d8575b505050811b01600155610128565b01515f1960f88460031b161c191690555f80806101ca565b919260206001819286850151815501940192016101b7565b818111156100f95760015f52601f820160051c7fb10e2d527612073b26eecdfd717e6a320cf44b4afac2b0732d9fcbe2b7fa0cf66020841061026e575b81601f9101920160051c03905f5b8281106102615750506100f9565b5f82820155600101610253565b5f9150610245565b634e487b7160e01b5f52602260045260245ffd5b90607f16906100e7565b634e487b7160e01b5f52604160045260245ffd5b015190505f806100b2565b601f198216905f8052805f20915f5b8181106102fc575095836001959697106102e4575b505050811b015f556100c6565b01515f1960f88460031b161c191690555f80806102d7565b9192602060018192868b0151815501940192016102c2565b81811115610099575f8052601f820160051c7f290decd9548b62a8d60345a988386fc84ba6bc95484008f6362f93160ef3e56360208410610379575b81601f9101920160051c03905f5b82811061036c575050610099565b5f8282015560010161035e565b5f9150610350565b90607f1690610087565b5f80fd5b6040519190601f01601f191682016001600160401b038111838210176102945760405256fe6080806040526004361015610012575f80fd5b5f905f3560e01c90816301ffc9a714610dd8575080630562b9f714610d6457806306fdde0314610cac578063081812fc14610c70578063095ea7b314610b8657806312065fe014610b5657806317d70f7c14610b395780631950c21814610b0c5780631e7be21014610acf57806323b872dd14610ab85780633ccfd60b14610a3057806342842e0e14610a015780634a5c7c0e146109e45780636352211e146109b457806370a0823114610989578063715018a61461092e57806378c8cda7146108b25780638da5cb5b1461088a5780639426f74b1461085257806395d89b411461074a578063a0712d681461045f578063a22cb465146103c4578063b88d4fde1461032e578063c87b56dd146102d1578063e985e9c514610279578063f2fde38b146101f05763f80f5dd514610147575f80fd5b346101ed5760203660031901126101ed57610160610e67565b61016861113a565b6001600160a01b031680156101db57808252600960205260ff6040832054166101c957808252600960205260408220805460ff191660011790557f4790a4adb426ca2345bb5108f6e454eae852a7bf687544cd66a7270dff3a41d68280a280f35b63a891795760e01b8252600452602490fd5b634726455360e11b8252600452602490fd5b80fd5b50346101ed5760203660031901126101ed5761020a610e67565b61021261113a565b6001600160a01b0316801561026557600680546001600160a01b0319811683179091556001600160a01b03167f8be0079c531659141344cd1fd0a4f28419497f9722a3daafe3b4186f6b6457e05f80a380f35b631e4fbdf760e01b82526004829052602482fd5b50346101ed5760403660031901126101ed576040610295610e67565b9161029e610e7d565b9260018060a01b031681526005602052209060018060a01b03165f52602052602060ff60405f2054166040519015158152f35b3461032a57602036600319011261032a576102ed600435611161565b505f6040516102fd602082610ecd565b5261032660405161030f602082610ecd565b5f8152604051918291602083526020830190610e43565b0390f35b5f80fd5b3461032a57608036600319011261032a57610347610e67565b61034f610e7d565b906044356064359267ffffffffffffffff841161032a573660238501121561032a5783600401359261038084610f03565b9361038e6040519586610ecd565b808552366024828801011161032a576020815f9260246103c2990183890137860101526103bc838383610f6f565b33611195565b005b3461032a57604036600319011261032a576103dd610e67565b6024359081151580920361032a576001600160a01b031690811561044c57335f52600560205260405f20825f5260205260405f2060ff1981541660ff83161790556040519081527f17307eab39ab6107e8899845ad3d59bd9653f200f220920489ca2b5937696c3160203392a3005b50630b61174360e31b5f5260045260245ffd5b602036600319011261032a5760043580156107385761047d33610f4e565b1561072557335f52600a6020526104988160405f205461112d565b60075410610713576020338015801591905f5b8581106104cd5785600a86335f52526104c960405f2091825461112d565b9055005b6008546040516104dd8782610ecd565b835f8252610700575f8281526002885260409020546001600160a01b03168015159087826106cd575b6106b6575b835f526002895260405f20876bffffffffffffffffffffffff60a01b8254161790558333827fddf252ad1be2c89b69c2b068fc378daa952ba7f163c4a11628f55a4df523b3ef5f80a4506106a3578690333b6105bf575b505050600854905f1982146105ab576001809201806008556040519081527f4cc0a9c4a99ddc700de1af2c9f916a7cbfdb71f14801ccff94061ad1ef8a8040873392a2016104ab565b634e487b7160e01b5f52601160045260245ffd5b6105f7926040519384928392630a85bd0160e11b84523360048501525f60248501526044840152608060648401526084830190610e43565b03815f335af15f9181610663575b506106315785610613610f1f565b8051918261062e57633250574960e11b5f523360045260245ffd5b01fd5b6001600160e01b03191663757a42ff60e11b0161065057868581610562565b633250574960e11b5f523360045260245ffd5b9091508681813d831161069c575b61067b8183610ecd565b8101031261032a57516001600160e01b03198116810361032a579088610605565b503d610671565b6339e3563760e11b5f525f60045260245ffd5b335f526003895260405f206001815401905561050b565b505f8481526004602052604080822080546001600160a01b031916905582825260038b52902080545f1901905587610506565b633250574960e11b5f525f60045260245ffd5b6353db93ed60e01b5f5260045260245ffd5b6353c78f0160e11b5f523360045260245ffd5b637cb1974360e11b5f5260045260245ffd5b3461032a575f36600319011261032a576040515f6001548060011c90600181168015610848575b6020831081146108345782855290811561081057506001146107b2575b6103268361079e81850382610ecd565b604051918291602083526020830190610e43565b91905060015f527fb10e2d527612073b26eecdfd717e6a320cf44b4afac2b0732d9fcbe2b7fa0cf6915f905b8082106107f65750909150810160200161079e61078e565b9192600181602092548385880101520191019092916107de565b60ff191660208086019190915291151560051b8401909101915061079e905061078e565b634e487b7160e01b5f52602260045260245ffd5b91607f1691610771565b3461032a57602036600319011261032a576001600160a01b03610873610e67565b165f52600a602052602060405f2054604051908152f35b3461032a575f36600319011261032a576006546040516001600160a01b039091168152602090f35b3461032a57602036600319011261032a576108cb610e67565b6108d361113a565b6001600160a01b0316801561091c57805f52600960205260405f2060ff1981541690557fde8cf212af7ce38b2840785a2768d97ff2dbf3c21b516961cec0061e134c2a1e5f80a2005b634726455360e11b5f5260045260245ffd5b3461032a575f36600319011261032a5761094661113a565b600680546001600160a01b031981169091555f906001600160a01b03167f8be0079c531659141344cd1fd0a4f28419497f9722a3daafe3b4186f6b6457e08280a3005b3461032a57602036600319011261032a5760206109ac6109a7610e67565b6110fc565b604051908152f35b3461032a57602036600319011261032a5760206109d2600435611161565b6040516001600160a01b039091168152f35b3461032a575f36600319011261032a576020600754604051908152f35b3461032a576103c2610a1236610e93565b9060405192610a22602085610ecd565b5f84526103bc838383610f6f565b5f36600319011261032a57610a4361113a565b6006546001600160a01b03165f808080610a5c856110fc565b80955af1610a68610f1f565b5015610aa9576006546040519182526001600160a01b0316907f7084f5476618d8e60b11ef0d7d3f06914655adb8793e28ff7f018d4c76d505d590602090a2005b631d42c86760e21b5f5260045ffd5b3461032a576103c2610ac936610e93565b91610f6f565b3461032a57602036600319011261032a576001600160a01b03610af0610e67565b165f526009602052602060ff60405f2054166040519015158152f35b3461032a57602036600319011261032a576020610b2f610b2a610e67565b610f4e565b6040519015158152f35b3461032a575f36600319011261032a576020600854604051908152f35b3461032a575f36600319011261032a57610b6e61113a565b6006546020906109ac906001600160a01b03166110fc565b3461032a57604036600319011261032a57610b9f610e67565b602435610bab81611161565b33151580610c5d575b80610c30575b610c1d5781906001600160a01b0384811691167f8c5be1e5ebec7d5bd14f71427d1e84f3dd0314c0f7b2291e5b200ac8c7c3b9255f80a45f90815260046020526040902080546001600160a01b0319166001600160a01b03909216919091179055005b63a9fbf51f60e01b5f523360045260245ffd5b506001600160a01b0381165f90815260056020908152604080832033845290915290205460ff1615610bba565b506001600160a01b038116331415610bb4565b3461032a57602036600319011261032a57600435610c8d81611161565b505f526004602052602060018060a01b0360405f205416604051908152f35b3461032a575f36600319011261032a576040515f5f548060011c90600181168015610d5a575b602083108114610834578285529081156108105750600114610cfe576103268361079e81850382610ecd565b5f8080527f290decd9548b62a8d60345a988386fc84ba6bc95484008f6362f93160ef3e563939250905b808210610d405750909150810160200161079e61078e565b919260018160209254838588010152019101909291610d28565b91607f1691610cd2565b602036600319011261032a57600435610d7b61113a565b6006546001600160a01b0316610d90816110fc565b8215610dc55782811115610daf57505f80808481945af1610a68610f1f565b8263cf47918160e01b5f5260045260245260445ffd5b82633728b83d60e01b5f5260045260245ffd5b3461032a57602036600319011261032a576004359063ffffffff60e01b821680920361032a576020916380ac58cd60e01b8114908115610e32575b8115610e21575b5015158152f35b6301ffc9a760e01b14905083610e1a565b635b5e139f60e01b81149150610e13565b805180835260209291819084018484015e5f828201840152601f01601f1916010190565b600435906001600160a01b038216820361032a57565b602435906001600160a01b038216820361032a57565b606090600319011261032a576004356001600160a01b038116810361032a57906024356001600160a01b038116810361032a579060443590565b90601f8019910116810190811067ffffffffffffffff821117610eef57604052565b634e487b7160e01b5f52604160045260245ffd5b67ffffffffffffffff8111610eef57601f01601f191660200190565b3d15610f49573d90610f3082610f03565b91610f3e6040519384610ecd565b82523d5f602084013e565b606090565b6001600160a01b0316801561091c575f52600960205260ff60405f20541690565b6001600160a01b0390911691908215610700575f828152600260205260409020546001600160a01b031692829033151580611067575b5084611034575b805f52600360205260405f2060018154019055815f52600260205260405f20816bffffffffffffffffffffffff60a01b825416179055847fddf252ad1be2c89b69c2b068fc378daa952ba7f163c4a11628f55a4df523b3ef5f80a46001600160a01b031680830361101c57505050565b6364283d7b60e01b5f5260045260245260445260645ffd5b5f82815260046020526040902080546001600160a01b0319169055845f52600360205260405f205f198154019055610fac565b909150806110ab575b1561107d5782905f610fa5565b828461109557637e27328960e01b5f5260045260245ffd5b63177e802f60e01b5f523360045260245260445ffd5b5033841480156110da575b8061107057505f838152600460205260409020546001600160a01b03163314611070565b505f84815260056020908152604080832033845290915290205460ff166110b6565b6001600160a01b0316801561111a575f52600360205260405f205490565b6322718ad960e21b5f525f60045260245ffd5b919082018092116105ab57565b6006546001600160a01b0316330361114e57565b63118cdaa760e01b5f523360045260245ffd5b5f818152600260205260409020546001600160a01b0316908115611183575090565b637e27328960e01b5f5260045260245ffd5b823b6111a3575b5050505050565b604051630a85bd0160e11b81526001600160a01b0391821660048201529181166024830152604482019390935260806064820152911691602090829081906111ef906084830190610e43565b03815f865af15f918161125f575b5061122b575061120b610f1f565b805190816112265782633250574960e11b5f5260045260245ffd5b602001fd5b6001600160e01b03191663757a42ff60e11b0161124d57505f8080808061119c565b633250574960e11b5f5260045260245ffd5b9091506020813d60201161129c575b8161127b60209383610ecd565b8101031261032a57516001600160e01b03198116810361032a57905f6111fd565b3d915061126e56fea26469706673582212208cb2e33a938e209b429c37dbf4810cdd2c0ae0624e0ae93eded764a129754d8f64736f6c63430008210033",
    "sourcePath": "c:/WIshlistSale/ac-hardhat-template/contracts/WhitelistSale.sol",
    "compiler": {
        "name": "solc",
        "version": "0.8.33+commit.64118f21"
    },
    "functionHashes": {
        "NFTPerWallet(address)": "9426f74b",
        "addWhitelist(address)": "f80f5dd5",
        "approve(address,uint256)": "095ea7b3",
        "balanceOf(address)": "70a08231",
        "checkWhitelist(address)": "1950c218",
        "getApproved(uint256)": "081812fc",
        "getBalance()": "12065fe0",
        "isApprovedForAll(address,address)": "e985e9c5",
        "maxQuantityNFT()": "4a5c7c0e",
        "mint(uint256)": "a0712d68",
        "name()": "06fdde03",
        "owner()": "8da5cb5b",
        "ownerOf(uint256)": "6352211e",
        "removeWhitelist(address)": "78c8cda7",
        "renounceOwnership()": "715018a6",
        "safeTransferFrom(address,address,uint256)": "42842e0e",
        "safeTransferFrom(address,address,uint256,bytes)": "b88d4fde",
        "setApprovalForAll(address,bool)": "a22cb465",
        "supportsInterface(bytes4)": "01ffc9a7",
        "symbol()": "95d89b41",
        "tokenId()": "17d70f7c",
        "tokenURI(uint256)": "c87b56dd",
        "transferFrom(address,address,uint256)": "23b872dd",
        "transferOwnership(address)": "f2fde38b",
        "whitelists(address)": "1e7be210",
        "withdraw()": "3ccfd60b",
        "withdrawAmount(uint256)": "0562b9f7"
    },
    "gasEstimates": {
        "creation": {
            "codeDepositCost": "965200",
            "executionCost": "infinite",
            "totalCost": "infinite"
        },
        "external": {
            "NFTPerWallet(address)": "2807",
            "addWhitelist(address)": "30586",
            "approve(address,uint256)": "31173",
            "balanceOf(address)": "2765",
            "checkWhitelist(address)": "2623",
            "getApproved(uint256)": "4652",
            "getBalance()": "6783",
            "isApprovedForAll(address,address)": "3110",
            "maxQuantityNFT()": "2525",
            "mint(uint256)": "infinite",
            "name()": "infinite",
            "owner()": "2659",
            "ownerOf(uint256)": "2709",
            "removeWhitelist(address)": "28172",
            "renounceOwnership()": "28395",
            "safeTransferFrom(address,address,uint256)": "infinite",
            "safeTransferFrom(address,address,uint256,bytes)": "infinite",
            "setApprovalForAll(address,bool)": "26889",
            "supportsInterface(bytes4)": "327",
            "symbol()": "infinite",
            "tokenId()": "2393",
            "tokenURI(uint256)": "infinite",
            "transferFrom(address,address,uint256)": "106460",
            "transferOwnership(address)": "28731",
            "whitelists(address)": "2599",
            "withdraw()": "infinite",
            "withdrawAmount(uint256)": "infinite"
        }
    }
}