{
  "address": "0x8c1fe2B35b070d9a9aDaf2365c50c521427662Cf",
  "abi": [
    {
      "inputs": [
        {
          "internalType": "address",
          "name": "_token",
          "type": "address"
        },
        {
          "internalType": "address",
          "name": "_admin",
          "type": "address"
        },
        {
          "internalType": "address",
          "name": "_operator",
          "type": "address"
        }
      ],
      "stateMutability": "nonpayable",
      "type": "constructor"
    },
    {
      "inputs": [],
      "name": "AccessControlBadConfirmation",
      "type": "error"
    },
    {
      "inputs": [
        {
          "internalType": "address",
          "name": "account",
          "type": "address"
        },
        {
          "internalType": "bytes32",
          "name": "neededRole",
          "type": "bytes32"
        }
      ],
      "name": "AccessControlUnauthorizedAccount",
      "type": "error"
    },
    {
      "inputs": [],
      "name": "EnforcedPause",
      "type": "error"
    },
    {
      "inputs": [],
      "name": "ExpectedPause",
      "type": "error"
    },
    {
      "inputs": [],
      "name": "InsufficientBalance",
      "type": "error"
    },
    {
      "inputs": [],
      "name": "InvalidAddress",
      "type": "error"
    },
    {
      "inputs": [],
      "name": "InvalidAmount",
      "type": "error"
    },
    {
      "inputs": [],
      "name": "InvalidToken",
      "type": "error"
    },
    {
      "inputs": [],
      "name": "ReentrancyGuardReentrantCall",
      "type": "error"
    },
    {
      "inputs": [
        {
          "internalType": "address",
          "name": "token",
          "type": "address"
        }
      ],
      "name": "SafeERC20FailedOperation",
      "type": "error"
    },
    {
      "anonymous": false,
      "inputs": [
        {
          "indexed": true,
          "internalType": "address",
          "name": "admin",
          "type": "address"
        },
        {
          "indexed": false,
          "internalType": "uint256",
          "name": "amount",
          "type": "uint256"
        }
      ],
      "name": "AdminFunded",
      "type": "event"
    },
    {
      "anonymous": false,
      "inputs": [
        {
          "indexed": true,
          "internalType": "address",
          "name": "admin",
          "type": "address"
        },
        {
          "indexed": false,
          "internalType": "uint256",
          "name": "amount",
          "type": "uint256"
        }
      ],
      "name": "AdminWithdrawn",
      "type": "event"
    },
    {
      "anonymous": false,
      "inputs": [
        {
          "indexed": true,
          "internalType": "address",
          "name": "user",
          "type": "address"
        },
        {
          "indexed": false,
          "internalType": "uint256",
          "name": "amount",
          "type": "uint256"
        }
      ],
      "name": "InterestPaid",
      "type": "event"
    },
    {
      "anonymous": false,
      "inputs": [
        {
          "indexed": true,
          "internalType": "address",
          "name": "user",
          "type": "address"
        },
        {
          "indexed": false,
          "internalType": "uint256",
          "name": "amount",
          "type": "uint256"
        }
      ],
      "name": "InterestReceived",
      "type": "event"
    },
    {
      "anonymous": false,
      "inputs": [
        {
          "indexed": false,
          "internalType": "address",
          "name": "account",
          "type": "address"
        }
      ],
      "name": "Paused",
      "type": "event"
    },
    {
      "anonymous": false,
      "inputs": [
        {
          "indexed": true,
          "internalType": "bytes32",
          "name": "role",
          "type": "bytes32"
        },
        {
          "indexed": true,
          "internalType": "bytes32",
          "name": "previousAdminRole",
          "type": "bytes32"
        },
        {
          "indexed": true,
          "internalType": "bytes32",
          "name": "newAdminRole",
          "type": "bytes32"
        }
      ],
      "name": "RoleAdminChanged",
      "type": "event"
    },
    {
      "anonymous": false,
      "inputs": [
        {
          "indexed": true,
          "internalType": "bytes32",
          "name": "role",
          "type": "bytes32"
        },
        {
          "indexed": true,
          "internalType": "address",
          "name": "account",
          "type": "address"
        },
        {
          "indexed": true,
          "internalType": "address",
          "name": "sender",
          "type": "address"
        }
      ],
      "name": "RoleGranted",
      "type": "event"
    },
    {
      "anonymous": false,
      "inputs": [
        {
          "indexed": true,
          "internalType": "bytes32",
          "name": "role",
          "type": "bytes32"
        },
        {
          "indexed": true,
          "internalType": "address",
          "name": "account",
          "type": "address"
        },
        {
          "indexed": true,
          "internalType": "address",
          "name": "sender",
          "type": "address"
        }
      ],
      "name": "RoleRevoked",
      "type": "event"
    },
    {
      "anonymous": false,
      "inputs": [
        {
          "indexed": true,
          "internalType": "address",
          "name": "savingBank",
          "type": "address"
        }
      ],
      "name": "SavingBankUpdated",
      "type": "event"
    },
    {
      "anonymous": false,
      "inputs": [
        {
          "indexed": false,
          "internalType": "address",
          "name": "account",
          "type": "address"
        }
      ],
      "name": "Unpaused",
      "type": "event"
    },
    {
      "inputs": [],
      "name": "ADMIN_ROLE",
      "outputs": [
        {
          "internalType": "bytes32",
          "name": "",
          "type": "bytes32"
        }
      ],
      "stateMutability": "view",
      "type": "function"
    },
    {
      "inputs": [],
      "name": "DEFAULT_ADMIN_ROLE",
      "outputs": [
        {
          "internalType": "bytes32",
          "name": "",
          "type": "bytes32"
        }
      ],
      "stateMutability": "view",
      "type": "function"
    },
    {
      "inputs": [],
      "name": "OPERATOR_ROLE",
      "outputs": [
        {
          "internalType": "bytes32",
          "name": "",
          "type": "bytes32"
        }
      ],
      "stateMutability": "view",
      "type": "function"
    },
    {
      "inputs": [
        {
          "internalType": "uint256",
          "name": "amount",
          "type": "uint256"
        }
      ],
      "name": "depositFund",
      "outputs": [],
      "stateMutability": "nonpayable",
      "type": "function"
    },
    {
      "inputs": [],
      "name": "getActualBalance",
      "outputs": [
        {
          "internalType": "uint256",
          "name": "",
          "type": "uint256"
        }
      ],
      "stateMutability": "view",
      "type": "function"
    },
    {
      "inputs": [],
      "name": "getBalance",
      "outputs": [
        {
          "internalType": "uint256",
          "name": "",
          "type": "uint256"
        }
      ],
      "stateMutability": "view",
      "type": "function"
    },
    {
      "inputs": [
        {
          "internalType": "bytes32",
          "name": "role",
          "type": "bytes32"
        }
      ],
      "name": "getRoleAdmin",
      "outputs": [
        {
          "internalType": "bytes32",
          "name": "",
          "type": "bytes32"
        }
      ],
      "stateMutability": "view",
      "type": "function"
    },
    {
      "inputs": [
        {
          "internalType": "bytes32",
          "name": "role",
          "type": "bytes32"
        },
        {
          "internalType": "address",
          "name": "account",
          "type": "address"
        }
      ],
      "name": "grantRole",
      "outputs": [],
      "stateMutability": "nonpayable",
      "type": "function"
    },
    {
      "inputs": [
        {
          "internalType": "bytes32",
          "name": "role",
          "type": "bytes32"
        },
        {
          "internalType": "address",
          "name": "account",
          "type": "address"
        }
      ],
      "name": "hasRole",
      "outputs": [
        {
          "internalType": "bool",
          "name": "",
          "type": "bool"
        }
      ],
      "stateMutability": "view",
      "type": "function"
    },
    {
      "inputs": [],
      "name": "pause",
      "outputs": [],
      "stateMutability": "nonpayable",
      "type": "function"
    },
    {
      "inputs": [],
      "name": "paused",
      "outputs": [
        {
          "internalType": "bool",
          "name": "",
          "type": "bool"
        }
      ],
      "stateMutability": "view",
      "type": "function"
    },
    {
      "inputs": [
        {
          "internalType": "address",
          "name": "user",
          "type": "address"
        },
        {
          "internalType": "uint256",
          "name": "amount",
          "type": "uint256"
        }
      ],
      "name": "payInterest",
      "outputs": [],
      "stateMutability": "nonpayable",
      "type": "function"
    },
    {
      "inputs": [
        {
          "internalType": "bytes32",
          "name": "role",
          "type": "bytes32"
        },
        {
          "internalType": "address",
          "name": "callerConfirmation",
          "type": "address"
        }
      ],
      "name": "renounceRole",
      "outputs": [],
      "stateMutability": "nonpayable",
      "type": "function"
    },
    {
      "inputs": [
        {
          "internalType": "bytes32",
          "name": "role",
          "type": "bytes32"
        },
        {
          "internalType": "address",
          "name": "account",
          "type": "address"
        }
      ],
      "name": "revokeRole",
      "outputs": [],
      "stateMutability": "nonpayable",
      "type": "function"
    },
    {
      "inputs": [
        {
          "internalType": "bytes4",
          "name": "interfaceId",
          "type": "bytes4"
        }
      ],
      "name": "supportsInterface",
      "outputs": [
        {
          "internalType": "bool",
          "name": "",
          "type": "bool"
        }
      ],
      "stateMutability": "view",
      "type": "function"
    },
    {
      "inputs": [],
      "name": "token",
      "outputs": [
        {
          "internalType": "contract IERC20",
          "name": "",
          "type": "address"
        }
      ],
      "stateMutability": "view",
      "type": "function"
    },
    {
      "inputs": [],
      "name": "totalBalance",
      "outputs": [
        {
          "internalType": "uint256",
          "name": "",
          "type": "uint256"
        }
      ],
      "stateMutability": "view",
      "type": "function"
    },
    {
      "inputs": [
        {
          "internalType": "address",
          "name": "principalVault",
          "type": "address"
        },
        {
          "internalType": "address",
          "name": "user",
          "type": "address"
        },
        {
          "internalType": "uint256",
          "name": "amount",
          "type": "uint256"
        }
      ],
      "name": "transferInterestToPrincipal",
      "outputs": [],
      "stateMutability": "nonpayable",
      "type": "function"
    },
    {
      "inputs": [],
      "name": "unpause",
      "outputs": [],
      "stateMutability": "nonpayable",
      "type": "function"
    },
    {
      "inputs": [
        {
          "internalType": "uint256",
          "name": "amount",
          "type": "uint256"
        }
      ],
      "name": "withdrawFund",
      "outputs": [],
      "stateMutability": "nonpayable",
      "type": "function"
    }
  ],
  "transactionHash": "0x8ee35af688f8f5511012ba1e151c6e884b61824cc8b9acde2e3121a7f583fa75",
  "args": [
    "0x4f97bf1A6A09003e4E02aC7d99109170456EFFBF",
    "0x4Fb3Fd2c8Af9Ce5250463823DbF8B5a3d013e8bd",
    "0x4Fb3Fd2c8Af9Ce5250463823DbF8B5a3d013e8bd"
  ],
  "numDeployments": 1,
  "solcInputHash": "57d8396c85f36b17a5eaf85357a45b2c",
  "bytecode": "0x60a03461010957601f6110ca38819003918201601f19168301916001600160401b0383118484101761010e578084926060946040528339810103126101095761004781610124565b61005f604061005860208501610124565b9301610124565b6001600255906001600160a01b031680156100f8576001600160a01b038316156100e7576001600160a01b038216156100e7576100b2926100ac916080526100a681610138565b506101b4565b5061024c565b50604051610d6590816102e5823960805181818161011b01528181610224015281816104e30152818161059d015261083e0152f35b63e6c4247b60e01b60005260046000fd5b63c1ab6dc160e01b60005260046000fd5b600080fd5b634e487b7160e01b600052604160045260246000fd5b51906001600160a01b038216820361010957565b6001600160a01b03811660009081526000805160206110aa833981519152602052604090205460ff166101ae576001600160a01b031660008181526000805160206110aa83398151915260205260408120805460ff1916600117905533919060008051602061104a8339815191528180a4600190565b50600090565b6001600160a01b038116600090815260008051602061106a833981519152602052604090205460ff166101ae576001600160a01b0316600081815260008051602061106a83398151915260205260408120805460ff191660011790553391907fa49807205ce4d355092ef5a8a18f56e8913cf4a201fbe287825b095693c217759060008051602061104a8339815191529080a4600190565b6001600160a01b038116600090815260008051602061108a833981519152602052604090205460ff166101ae576001600160a01b0316600081815260008051602061108a83398151915260205260408120805460ff191660011790553391907f97667070c54ef182b0f5858b034beac1b6f3089aa2d3188bb1e8929f4fa9b9299060008051602061104a8339815191529080a460019056fe608080604052600436101561001357600080fd5b60003560e01c90816301ffc9a714610895575080630cee1725146107f657806312065fe01461031b5780631b7623be1461076d578063248a9ca3146107385780632f2ff15d146106f857806336568abe146106995780633f4ba83a1461061757806344dd3d0d14610550578063585e5d201461045a5780635c975abb1461043757806375b238fc146103fc5780638456cb59146103a357806391d1485414610355578063a217fddf14610339578063ad7a672f1461031b578063d547741f146102d4578063dd76c6a41461017f578063f5b541a6146101445763fc0c546a146100fb57600080fd5b3461013f57600036600319011261013f5760206040516001600160a01b037f0000000000000000000000000000000000000000000000000000000000000000168152f35b600080fd5b3461013f57600036600319011261013f5760206040517f97667070c54ef182b0f5858b034beac1b6f3089aa2d3188bb1e8929f4fa9b9298152f35b3461013f57606036600319011261013f57610198610933565b6101a0610949565b90604435916101ad610a16565b6101b5610b5f565b6101bd610acf565b6001600160a01b038216156102aa576001600160a01b03169182156102aa578015610280576003549081811161025657610248817fafbdf4a29de9954f6afbbcf3e269a36e265a186a66697b497139ca4c704c698f9461021f8260209661095f565b6003557f0000000000000000000000000000000000000000000000000000000000000000610b08565b604051908152a26001600255005b7ff4d678b80000000000000000000000000000000000000000000000000000000060005260046000fd5b7f2c5211c60000000000000000000000000000000000000000000000000000000060005260046000fd5b7fe6c4247b0000000000000000000000000000000000000000000000000000000060005260046000fd5b3461013f57604036600319011261013f576103196004356102f3610949565b9061031461030f82600052600060205260016040600020015490565b610a88565b610c2f565b005b3461013f57600036600319011261013f576020600354604051908152f35b3461013f57600036600319011261013f57602060405160008152f35b3461013f57604036600319011261013f5761036e610949565b60043560005260006020526001600160a01b0360406000209116600052602052602060ff604060002054166040519015158152f35b3461013f57600036600319011261013f576103bc6109a4565b6103c4610b5f565b600160ff19815416176001557f62e78cea01bee320cd4e420270b5ea74000d11b0c9f74754ebdbfc544b05a2586020604051338152a1005b3461013f57600036600319011261013f5760206040517fa49807205ce4d355092ef5a8a18f56e8913cf4a201fbe287825b095693c217758152f35b3461013f57600036600319011261013f57602060ff600154166040519015158152f35b3461013f57602036600319011261013f576004356104766109a4565b61047e610acf565b80156102805760035481810180911161053a576003556105076040517f23b872dd000000000000000000000000000000000000000000000000000000006020820152336024820152306044820152826064820152606481526104e160848261096c565b7f0000000000000000000000000000000000000000000000000000000000000000610cbe565b6040519081527f549c0d28d1e244f98affb2d716eed5d147dfa1859d73c9e9d817d6c4009e77e560203392a26001600255005b634e487b7160e01b600052601160045260246000fd5b3461013f57600036600319011261013f576040517f70a082310000000000000000000000000000000000000000000000000000000081523060048201526020816024816001600160a01b037f0000000000000000000000000000000000000000000000000000000000000000165afa801561060b576000906105d8575b602090604051908152f35b506020813d602011610603575b816105f26020938361096c565b8101031261013f57602090516105cd565b3d91506105e5565b6040513d6000823e3d90fd5b3461013f57600036600319011261013f576106306109a4565b60015460ff81161561066f5760ff19166001557f5db9ee0a495bf2e6ff9c91a7834c1ba4fdd244a5e8aa4e537bd38aeae4b073aa6020604051338152a1005b7f8dfc202b0000000000000000000000000000000000000000000000000000000060005260046000fd5b3461013f57604036600319011261013f576106b2610949565b336001600160a01b038216036106ce5761031990600435610c2f565b7f6697b2320000000000000000000000000000000000000000000000000000000060005260046000fd5b3461013f57604036600319011261013f57610319600435610717610949565b9061073361030f82600052600060205260016040600020015490565b610b95565b3461013f57602036600319011261013f576020610765600435600052600060205260016040600020015490565b604051908152f35b3461013f57604036600319011261013f57610786610933565b60243590610792610a16565b61079a610b5f565b6107a2610acf565b6001600160a01b0381169182156102aa578015610280576003549081811161025657610248817f16cbc685358ca7d4e6b273dcdf2cb5d18c80b950aa2319b519756cd016233a6c9461021f8260209661095f565b3461013f57602036600319011261013f576004356108126109a4565b61081a610acf565b80156102805760035480821161025657816108349161095f565b60035561086281337f0000000000000000000000000000000000000000000000000000000000000000610b08565b6040519081527fca1cf43de312865665f595e88f569f9d5246690c07df26e86aba01147e6d131460203392a26001600255005b3461013f57602036600319011261013f57600435907fffffffff00000000000000000000000000000000000000000000000000000000821680920361013f57817f7965db0b0000000000000000000000000000000000000000000000000000000060209314908115610909575b5015158152f35b7f01ffc9a70000000000000000000000000000000000000000000000000000000091501483610902565b600435906001600160a01b038216820361013f57565b602435906001600160a01b038216820361013f57565b9190820391821161053a57565b90601f8019910116810190811067ffffffffffffffff82111761098e57604052565b634e487b7160e01b600052604160045260246000fd5b3360009081527f7d7ffb7a348e1c6a02869081a26547b49160dd3df72d1d75a570eb9b698292ec602052604090205460ff16156109dd57565b63e2517d3f60e01b600052336004527fa49807205ce4d355092ef5a8a18f56e8913cf4a201fbe287825b095693c2177560245260446000fd5b3360009081527fee57cd81e84075558e8fcc182a1f4393f91fc97f963a136e66b7f949a62f319f602052604090205460ff1615610a4f57565b63e2517d3f60e01b600052336004527f97667070c54ef182b0f5858b034beac1b6f3089aa2d3188bb1e8929f4fa9b92960245260446000fd5b80600052600060205260406000206001600160a01b03331660005260205260ff6040600020541615610ab75750565b63e2517d3f60e01b6000523360045260245260446000fd5b6002805414610ade5760028055565b7f3ee5aeb50000000000000000000000000000000000000000000000000000000060005260046000fd5b610b5d926001600160a01b03604051937fa9059cbb000000000000000000000000000000000000000000000000000000006020860152166024840152604483015260448252610b5860648361096c565b610cbe565b565b60ff60015416610b6b57565b7fd93c06650000000000000000000000000000000000000000000000000000000060005260046000fd5b80600052600060205260406000206001600160a01b03831660005260205260ff6040600020541615600014610c285780600052600060205260406000206001600160a01b0383166000526020526040600020600160ff198254161790556001600160a01b03339216907f2f8788117e7eff1d82e926ec794901d17c78024a50270940304540a733656f0d600080a4600190565b5050600090565b80600052600060205260406000206001600160a01b03831660005260205260ff60406000205416600014610c285780600052600060205260406000206001600160a01b038316600052602052604060002060ff1981541690556001600160a01b03339216907ff6391f5c32d9c69d2a47ea670b442974b53935d1edc7fd64eb21e047a839171b600080a4600190565b906000602091828151910182855af11561060b576000513d610d2657506001600160a01b0381163b155b610cef5750565b6001600160a01b03907f5274afe7000000000000000000000000000000000000000000000000000000006000521660045260246000fd5b60011415610ce856fea2646970667358221220b84ccf4bcecee0c18f201ab941bfe56683ff5a2d8e35d4c2fb6055519566d4c464736f6c634300081c00332f8788117e7eff1d82e926ec794901d17c78024a50270940304540a733656f0d7d7ffb7a348e1c6a02869081a26547b49160dd3df72d1d75a570eb9b698292ecee57cd81e84075558e8fcc182a1f4393f91fc97f963a136e66b7f949a62f319fad3228b676f7d3cd4284a5443f17f1962b36e491b30a40b2405849e597ba5fb5",
  "devdoc": {
    "details": "S dng AccessControl  qun l ADMIN_ROLE v OPERATOR_ROLE",
    "errors": {
      "AccessControlBadConfirmation()": [
        {
          "details": "The caller of a function is not the expected one. NOTE: Don't confuse with {AccessControlUnauthorizedAccount}."
        }
      ],
      "AccessControlUnauthorizedAccount(address,bytes32)": [
        {
          "details": "The `account` is missing a role."
        }
      ],
      "EnforcedPause()": [
        {
          "details": "The operation failed because the contract is paused."
        }
      ],
      "ExpectedPause()": [
        {
          "details": "The operation failed because the contract is not paused."
        }
      ],
      "ReentrancyGuardReentrantCall()": [
        {
          "details": "Unauthorized reentrant call."
        }
      ],
      "SafeERC20FailedOperation(address)": [
        {
          "details": "An operation with an ERC-20 token failed."
        }
      ]
    },
    "events": {
      "Paused(address)": {
        "details": "Emitted when the pause is triggered by `account`."
      },
      "RoleAdminChanged(bytes32,bytes32,bytes32)": {
        "details": "Emitted when `newAdminRole` is set as ``role``'s admin role, replacing `previousAdminRole` `DEFAULT_ADMIN_ROLE` is the starting admin for all roles, despite {RoleAdminChanged} not being emitted to signal this."
      },
      "RoleGranted(bytes32,address,address)": {
        "details": "Emitted when `account` is granted `role`. `sender` is the account that originated the contract call. This account bears the admin role (for the granted role). Expected in cases where the role was granted using the internal {AccessControl-_grantRole}."
      },
      "RoleRevoked(bytes32,address,address)": {
        "details": "Emitted when `account` is revoked `role`. `sender` is the account that originated the contract call:   - if using `revokeRole`, it is the admin role bearer   - if using `renounceRole`, it is the role bearer (i.e. `account`)"
      },
      "Unpaused(address)": {
        "details": "Emitted when the pause is lifted by `account`."
      }
    },
    "kind": "dev",
    "methods": {
      "depositFund(uint256)": {
        "params": {
          "amount": "S lng token"
        }
      },
      "getRoleAdmin(bytes32)": {
        "details": "Returns the admin role that controls `role`. See {grantRole} and {revokeRole}. To change a role's admin, use {_setRoleAdmin}."
      },
      "grantRole(bytes32,address)": {
        "details": "Grants `role` to `account`. If `account` had not been already granted `role`, emits a {RoleGranted} event. Requirements: - the caller must have ``role``'s admin role. May emit a {RoleGranted} event."
      },
      "hasRole(bytes32,address)": {
        "details": "Returns `true` if `account` has been granted `role`."
      },
      "paused()": {
        "details": "Returns true if the contract is paused, and false otherwise."
      },
      "payInterest(address,uint256)": {
        "params": {
          "amount": "S lng li",
          "user": "a ch nhn li"
        }
      },
      "renounceRole(bytes32,address)": {
        "details": "Revokes `role` from the calling account. Roles are often managed via {grantRole} and {revokeRole}: this function's purpose is to provide a mechanism for accounts to lose their privileges if they are compromised (such as when a trusted device is misplaced). If the calling account had been revoked `role`, emits a {RoleRevoked} event. Requirements: - the caller must be `callerConfirmation`. May emit a {RoleRevoked} event."
      },
      "revokeRole(bytes32,address)": {
        "details": "Revokes `role` from `account`. If `account` had been granted `role`, emits a {RoleRevoked} event. Requirements: - the caller must have ``role``'s admin role. May emit a {RoleRevoked} event."
      },
      "supportsInterface(bytes4)": {
        "details": "See {IERC165-supportsInterface}."
      },
      "transferInterestToPrincipal(address,address,uint256)": {
        "details": "c gi khi user renew deposit",
        "params": {
          "amount": "S lng li",
          "principalVault": "a ch PrincipalVault",
          "user": "a ch user ( track)"
        }
      },
      "withdrawFund(uint256)": {
        "params": {
          "amount": "S lng token"
        }
      }
    },
    "title": "InterestVault",
    "version": 1
  },
  "userdoc": {
    "kind": "user",
    "methods": {
      "depositFund(uint256)": {
        "notice": "Admin np tin li vo vault"
      },
      "getActualBalance()": {
        "notice": "Ly s d token thc t ca contract"
      },
      "getBalance()": {
        "notice": "Ly s d vault"
      },
      "pause()": {
        "notice": "Pause/unpause contract"
      },
      "payInterest(address,uint256)": {
        "notice": "Tr li cho user"
      },
      "transferInterestToPrincipal(address,address,uint256)": {
        "notice": "Chuyn li trc tip vo PrincipalVault  compound"
      },
      "withdrawFund(uint256)": {
        "notice": "Admin rt tin tha t vault"
      }
    },
    "notice": "Vault  gi tin li v tr li cho ngi dng",
    "version": 1
  },
  "storageLayout": {
    "storage": [
      {
        "astId": 26,
        "contract": "contracts/InterestVault.sol:InterestVault",
        "label": "_roles",
        "offset": 0,
        "slot": "0",
        "type": "t_mapping(t_bytes32,t_struct(RoleData)21_storage)"
      },
      {
        "astId": 1049,
        "contract": "contracts/InterestVault.sol:InterestVault",
        "label": "_paused",
        "offset": 0,
        "slot": "1",
        "type": "t_bool"
      },
      {
        "astId": 1159,
        "contract": "contracts/InterestVault.sol:InterestVault",
        "label": "_status",
        "offset": 0,
        "slot": "2",
        "type": "t_uint256"
      },
      {
        "astId": 1294,
        "contract": "contracts/InterestVault.sol:InterestVault",
        "label": "totalBalance",
        "offset": 0,
        "slot": "3",
        "type": "t_uint256"
      }
    ],
    "types": {
      "t_address": {
        "encoding": "inplace",
        "label": "address",
        "numberOfBytes": "20"
      },
      "t_bool": {
        "encoding": "inplace",
        "label": "bool",
        "numberOfBytes": "1"
      },
      "t_bytes32": {
        "encoding": "inplace",
        "label": "bytes32",
        "numberOfBytes": "32"
      },
      "t_mapping(t_address,t_bool)": {
        "encoding": "mapping",
        "key": "t_address",
        "label": "mapping(address => bool)",
        "numberOfBytes": "32",
        "value": "t_bool"
      },
      "t_mapping(t_bytes32,t_struct(RoleData)21_storage)": {
        "encoding": "mapping",
        "key": "t_bytes32",
        "label": "mapping(bytes32 => struct AccessControl.RoleData)",
        "numberOfBytes": "32",
        "value": "t_struct(RoleData)21_storage"
      },
      "t_struct(RoleData)21_storage": {
        "encoding": "inplace",
        "label": "struct AccessControl.RoleData",
        "members": [
          {
            "astId": 18,
            "contract": "contracts/InterestVault.sol:InterestVault",
            "label": "hasRole",
            "offset": 0,
            "slot": "0",
            "type": "t_mapping(t_address,t_bool)"
          },
          {
            "astId": 20,
            "contract": "contracts/InterestVault.sol:InterestVault",
            "label": "adminRole",
            "offset": 0,
            "slot": "1",
            "type": "t_bytes32"
          }
        ],
        "numberOfBytes": "64"
      },
      "t_uint256": {
        "encoding": "inplace",
        "label": "uint256",
        "numberOfBytes": "32"
      }
    }
  }
}