{
  "address": "0x2a0dEb355ac0F1008375e57e93871Bef408B3436",
  "abi": [
    {
      "inputs": [
        {
          "internalType": "address",
          "name": "_token",
          "type": "address"
        },
        {
          "internalType": "address",
          "name": "_admin",
          "type": "address"
        },
        {
          "internalType": "address",
          "name": "_operator",
          "type": "address"
        }
      ],
      "stateMutability": "nonpayable",
      "type": "constructor"
    },
    {
      "inputs": [],
      "name": "AccessControlBadConfirmation",
      "type": "error"
    },
    {
      "inputs": [
        {
          "internalType": "address",
          "name": "account",
          "type": "address"
        },
        {
          "internalType": "bytes32",
          "name": "neededRole",
          "type": "bytes32"
        }
      ],
      "name": "AccessControlUnauthorizedAccount",
      "type": "error"
    },
    {
      "inputs": [],
      "name": "EnforcedPause",
      "type": "error"
    },
    {
      "inputs": [],
      "name": "ExpectedPause",
      "type": "error"
    },
    {
      "inputs": [],
      "name": "InsufficientBalance",
      "type": "error"
    },
    {
      "inputs": [],
      "name": "InvalidAddress",
      "type": "error"
    },
    {
      "inputs": [],
      "name": "InvalidAmount",
      "type": "error"
    },
    {
      "inputs": [],
      "name": "InvalidToken",
      "type": "error"
    },
    {
      "inputs": [],
      "name": "ReentrancyGuardReentrantCall",
      "type": "error"
    },
    {
      "inputs": [
        {
          "internalType": "address",
          "name": "token",
          "type": "address"
        }
      ],
      "name": "SafeERC20FailedOperation",
      "type": "error"
    },
    {
      "anonymous": false,
      "inputs": [
        {
          "indexed": true,
          "internalType": "address",
          "name": "admin",
          "type": "address"
        },
        {
          "indexed": false,
          "internalType": "uint256",
          "name": "amount",
          "type": "uint256"
        }
      ],
      "name": "AdminFunded",
      "type": "event"
    },
    {
      "anonymous": false,
      "inputs": [
        {
          "indexed": true,
          "internalType": "address",
          "name": "admin",
          "type": "address"
        },
        {
          "indexed": false,
          "internalType": "uint256",
          "name": "amount",
          "type": "uint256"
        }
      ],
      "name": "AdminWithdrawn",
      "type": "event"
    },
    {
      "anonymous": false,
      "inputs": [
        {
          "indexed": false,
          "internalType": "address",
          "name": "account",
          "type": "address"
        }
      ],
      "name": "Paused",
      "type": "event"
    },
    {
      "anonymous": false,
      "inputs": [
        {
          "indexed": true,
          "internalType": "address",
          "name": "from",
          "type": "address"
        },
        {
          "indexed": false,
          "internalType": "uint256",
          "name": "amount",
          "type": "uint256"
        }
      ],
      "name": "PrincipalDeposited",
      "type": "event"
    },
    {
      "anonymous": false,
      "inputs": [
        {
          "indexed": true,
          "internalType": "address",
          "name": "to",
          "type": "address"
        },
        {
          "indexed": false,
          "internalType": "uint256",
          "name": "amount",
          "type": "uint256"
        }
      ],
      "name": "PrincipalWithdrawn",
      "type": "event"
    },
    {
      "anonymous": false,
      "inputs": [
        {
          "indexed": true,
          "internalType": "bytes32",
          "name": "role",
          "type": "bytes32"
        },
        {
          "indexed": true,
          "internalType": "bytes32",
          "name": "previousAdminRole",
          "type": "bytes32"
        },
        {
          "indexed": true,
          "internalType": "bytes32",
          "name": "newAdminRole",
          "type": "bytes32"
        }
      ],
      "name": "RoleAdminChanged",
      "type": "event"
    },
    {
      "anonymous": false,
      "inputs": [
        {
          "indexed": true,
          "internalType": "bytes32",
          "name": "role",
          "type": "bytes32"
        },
        {
          "indexed": true,
          "internalType": "address",
          "name": "account",
          "type": "address"
        },
        {
          "indexed": true,
          "internalType": "address",
          "name": "sender",
          "type": "address"
        }
      ],
      "name": "RoleGranted",
      "type": "event"
    },
    {
      "anonymous": false,
      "inputs": [
        {
          "indexed": true,
          "internalType": "bytes32",
          "name": "role",
          "type": "bytes32"
        },
        {
          "indexed": true,
          "internalType": "address",
          "name": "account",
          "type": "address"
        },
        {
          "indexed": true,
          "internalType": "address",
          "name": "sender",
          "type": "address"
        }
      ],
      "name": "RoleRevoked",
      "type": "event"
    },
    {
      "anonymous": false,
      "inputs": [
        {
          "indexed": true,
          "internalType": "address",
          "name": "savingBank",
          "type": "address"
        }
      ],
      "name": "SavingBankUpdated",
      "type": "event"
    },
    {
      "anonymous": false,
      "inputs": [
        {
          "indexed": false,
          "internalType": "address",
          "name": "account",
          "type": "address"
        }
      ],
      "name": "Unpaused",
      "type": "event"
    },
    {
      "inputs": [],
      "name": "ADMIN_ROLE",
      "outputs": [
        {
          "internalType": "bytes32",
          "name": "",
          "type": "bytes32"
        }
      ],
      "stateMutability": "view",
      "type": "function"
    },
    {
      "inputs": [],
      "name": "DEFAULT_ADMIN_ROLE",
      "outputs": [
        {
          "internalType": "bytes32",
          "name": "",
          "type": "bytes32"
        }
      ],
      "stateMutability": "view",
      "type": "function"
    },
    {
      "inputs": [],
      "name": "OPERATOR_ROLE",
      "outputs": [
        {
          "internalType": "bytes32",
          "name": "",
          "type": "bytes32"
        }
      ],
      "stateMutability": "view",
      "type": "function"
    },
    {
      "inputs": [
        {
          "internalType": "uint256",
          "name": "amount",
          "type": "uint256"
        }
      ],
      "name": "depositFund",
      "outputs": [],
      "stateMutability": "nonpayable",
      "type": "function"
    },
    {
      "inputs": [
        {
          "internalType": "address",
          "name": "from",
          "type": "address"
        },
        {
          "internalType": "uint256",
          "name": "amount",
          "type": "uint256"
        }
      ],
      "name": "depositPrincipal",
      "outputs": [],
      "stateMutability": "nonpayable",
      "type": "function"
    },
    {
      "inputs": [],
      "name": "getActualBalance",
      "outputs": [
        {
          "internalType": "uint256",
          "name": "",
          "type": "uint256"
        }
      ],
      "stateMutability": "view",
      "type": "function"
    },
    {
      "inputs": [],
      "name": "getBalance",
      "outputs": [
        {
          "internalType": "uint256",
          "name": "",
          "type": "uint256"
        }
      ],
      "stateMutability": "view",
      "type": "function"
    },
    {
      "inputs": [
        {
          "internalType": "bytes32",
          "name": "role",
          "type": "bytes32"
        }
      ],
      "name": "getRoleAdmin",
      "outputs": [
        {
          "internalType": "bytes32",
          "name": "",
          "type": "bytes32"
        }
      ],
      "stateMutability": "view",
      "type": "function"
    },
    {
      "inputs": [
        {
          "internalType": "bytes32",
          "name": "role",
          "type": "bytes32"
        },
        {
          "internalType": "address",
          "name": "account",
          "type": "address"
        }
      ],
      "name": "grantRole",
      "outputs": [],
      "stateMutability": "nonpayable",
      "type": "function"
    },
    {
      "inputs": [
        {
          "internalType": "bytes32",
          "name": "role",
          "type": "bytes32"
        },
        {
          "internalType": "address",
          "name": "account",
          "type": "address"
        }
      ],
      "name": "hasRole",
      "outputs": [
        {
          "internalType": "bool",
          "name": "",
          "type": "bool"
        }
      ],
      "stateMutability": "view",
      "type": "function"
    },
    {
      "inputs": [],
      "name": "pause",
      "outputs": [],
      "stateMutability": "nonpayable",
      "type": "function"
    },
    {
      "inputs": [],
      "name": "paused",
      "outputs": [
        {
          "internalType": "bool",
          "name": "",
          "type": "bool"
        }
      ],
      "stateMutability": "view",
      "type": "function"
    },
    {
      "inputs": [
        {
          "internalType": "address",
          "name": "user",
          "type": "address"
        },
        {
          "internalType": "uint256",
          "name": "amount",
          "type": "uint256"
        }
      ],
      "name": "receiveDirectDeposit",
      "outputs": [],
      "stateMutability": "nonpayable",
      "type": "function"
    },
    {
      "inputs": [
        {
          "internalType": "bytes32",
          "name": "role",
          "type": "bytes32"
        },
        {
          "internalType": "address",
          "name": "callerConfirmation",
          "type": "address"
        }
      ],
      "name": "renounceRole",
      "outputs": [],
      "stateMutability": "nonpayable",
      "type": "function"
    },
    {
      "inputs": [
        {
          "internalType": "bytes32",
          "name": "role",
          "type": "bytes32"
        },
        {
          "internalType": "address",
          "name": "account",
          "type": "address"
        }
      ],
      "name": "revokeRole",
      "outputs": [],
      "stateMutability": "nonpayable",
      "type": "function"
    },
    {
      "inputs": [
        {
          "internalType": "bytes4",
          "name": "interfaceId",
          "type": "bytes4"
        }
      ],
      "name": "supportsInterface",
      "outputs": [
        {
          "internalType": "bool",
          "name": "",
          "type": "bool"
        }
      ],
      "stateMutability": "view",
      "type": "function"
    },
    {
      "inputs": [],
      "name": "token",
      "outputs": [
        {
          "internalType": "contract IERC20",
          "name": "",
          "type": "address"
        }
      ],
      "stateMutability": "view",
      "type": "function"
    },
    {
      "inputs": [],
      "name": "totalBalance",
      "outputs": [
        {
          "internalType": "uint256",
          "name": "",
          "type": "uint256"
        }
      ],
      "stateMutability": "view",
      "type": "function"
    },
    {
      "inputs": [],
      "name": "unpause",
      "outputs": [],
      "stateMutability": "nonpayable",
      "type": "function"
    },
    {
      "inputs": [
        {
          "internalType": "uint256",
          "name": "amount",
          "type": "uint256"
        }
      ],
      "name": "withdrawFund",
      "outputs": [],
      "stateMutability": "nonpayable",
      "type": "function"
    },
    {
      "inputs": [
        {
          "internalType": "address",
          "name": "to",
          "type": "address"
        },
        {
          "internalType": "uint256",
          "name": "amount",
          "type": "uint256"
        }
      ],
      "name": "withdrawPrincipal",
      "outputs": [],
      "stateMutability": "nonpayable",
      "type": "function"
    }
  ],
  "transactionHash": "0xe10f3b496c4170944ffc238aacba83319d78cd224f33a55071007d37f0c514cc",
  "args": [
    "0xe264592FC0402d449E9388108E85C13ED8c76D5a",
    "0x4Fb3Fd2c8Af9Ce5250463823DbF8B5a3d013e8bd",
    "0x4Fb3Fd2c8Af9Ce5250463823DbF8B5a3d013e8bd"
  ],
  "numDeployments": 1,
  "solcInputHash": "c1cdbd97025c7207c0f8504acfe13442",
  "bytecode": "0x60a03461011057601f61119238819003918201601f19168301916001600160401b0383118484101761011557808492606094604052833981010312610110576100478161012b565b61005f60406100586020850161012b565b930161012b565b6001600255906001600160a01b031680156100ff576001600160a01b038316156100ee576001600160a01b038216156100ee576100b2926100ac916080526100a68161013f565b506101bb565b50610253565b50604051610e2690816102ec82396080518181816101260152818161045b0152818161051b015281816105bf015281816107e101526108820152f35b63e6c4247b60e01b60005260046000fd5b63c1ab6dc160e01b60005260046000fd5b600080fd5b634e487b7160e01b600052604160045260246000fd5b51906001600160a01b038216820361011057565b6001600160a01b0381166000908152600080516020611172833981519152602052604090205460ff166101b5576001600160a01b0316600081815260008051602061117283398151915260205260408120805460ff191660011790553391906000805160206111128339815191528180a4600190565b50600090565b6001600160a01b0381166000908152600080516020611132833981519152602052604090205460ff166101b5576001600160a01b0316600081815260008051602061113283398151915260205260408120805460ff191660011790553391907fa49807205ce4d355092ef5a8a18f56e8913cf4a201fbe287825b095693c21775906000805160206111128339815191529080a4600190565b6001600160a01b0381166000908152600080516020611152833981519152602052604090205460ff166101b5576001600160a01b0316600081815260008051602061115283398151915260205260408120805460ff191660011790553391907f97667070c54ef182b0f5858b034beac1b6f3089aa2d3188bb1e8929f4fa9b929906000805160206111128339815191529080a460019056fe608080604052600436101561001357600080fd5b60003560e01c90816301ffc9a7146108d9575080630cee17251461083a57806312065fe0146101d1578063248a9ca31461080557806324f2c4631461075a5780632f2ff15d1461071a57806336568abe146106bb5780633f4ba83a1461063957806344dd3d0d14610572578063585e5d20146104da5780635c975abb146104b757806371b81008146103cd57806375b238fc146103925780638456cb59146103395780638acb153d1461025957806391d148541461020b578063a217fddf146101ef578063ad7a672f146101d1578063d547741f1461018a578063f5b541a61461014f5763fc0c546a1461010657600080fd5b3461014a57600036600319011261014a5760206040516001600160a01b037f0000000000000000000000000000000000000000000000000000000000000000168152f35b600080fd5b3461014a57600036600319011261014a5760206040517f97667070c54ef182b0f5858b034beac1b6f3089aa2d3188bb1e8929f4fa9b9298152f35b3461014a57604036600319011261014a576101cf6004356101a961098d565b906101ca6101c582600052600060205260016040600020015490565b610aef565b610cf0565b005b3461014a57600036600319011261014a576020600354604051908152f35b3461014a57600036600319011261014a57602060405160008152f35b3461014a57604036600319011261014a5761022461098d565b60043560005260006020526001600160a01b0360406000209116600052602052602060ff604060002054166040519015158152f35b3461014a57604036600319011261014a57610272610977565b6001600160a01b0360243591610286610a7d565b61028e610bc6565b610296610b36565b1690811561030f5780156102e5576020816102d47f2d61cf17bab18b04495576cf3d5490afd6c0c573d79b7ce84a50fb523abb3daf936003546109c6565b600355604051908152a26001600255005b7f2c5211c60000000000000000000000000000000000000000000000000000000060005260046000fd5b7fe6c4247b0000000000000000000000000000000000000000000000000000000060005260046000fd5b3461014a57600036600319011261014a57610352610a0b565b61035a610bc6565b600160ff19815416176001557f62e78cea01bee320cd4e420270b5ea74000d11b0c9f74754ebdbfc544b05a2586020604051338152a1005b3461014a57600036600319011261014a5760206040517fa49807205ce4d355092ef5a8a18f56e8913cf4a201fbe287825b095693c217758152f35b3461014a57604036600319011261014a576103e6610977565b602435906103f2610a7d565b6103fa610bc6565b610402610b36565b6001600160a01b03811691821561030f5780156102e5576003549081811161048d5761047f817f6a0d6da0beb3b4dc509c4559b55ca29b5f90af6d351a3f9365bb5ab6b572c96094610456826020966109a3565b6003557f0000000000000000000000000000000000000000000000000000000000000000610b6f565b604051908152a26001600255005b7ff4d678b80000000000000000000000000000000000000000000000000000000060005260046000fd5b3461014a57600036600319011261014a57602060ff600154166040519015158152f35b3461014a57602036600319011261014a576004356104f6610a0b565b6104fe610b36565b80156102e557610510816003546109c6565b60035561053f8130337f0000000000000000000000000000000000000000000000000000000000000000610bfc565b6040519081527f549c0d28d1e244f98affb2d716eed5d147dfa1859d73c9e9d817d6c4009e77e560203392a26001600255005b3461014a57600036600319011261014a576040517f70a082310000000000000000000000000000000000000000000000000000000081523060048201526020816024816001600160a01b037f0000000000000000000000000000000000000000000000000000000000000000165afa801561062d576000906105fa575b602090604051908152f35b506020813d602011610625575b81610614602093836109d3565b8101031261014a57602090516105ef565b3d9150610607565b6040513d6000823e3d90fd5b3461014a57600036600319011261014a57610652610a0b565b60015460ff8116156106915760ff19166001557f5db9ee0a495bf2e6ff9c91a7834c1ba4fdd244a5e8aa4e537bd38aeae4b073aa6020604051338152a1005b7f8dfc202b0000000000000000000000000000000000000000000000000000000060005260046000fd5b3461014a57604036600319011261014a576106d461098d565b336001600160a01b038216036106f0576101cf90600435610cf0565b7f6697b2320000000000000000000000000000000000000000000000000000000060005260046000fd5b3461014a57604036600319011261014a576101cf60043561073961098d565b906107556101c582600052600060205260016040600020015490565b610c56565b3461014a57604036600319011261014a57610773610977565b60243561077e610a7d565b610786610bc6565b61078e610b36565b6001600160a01b03821691821561030f5781156102e5578161047f816020936107da7f2d61cf17bab18b04495576cf3d5490afd6c0c573d79b7ce84a50fb523abb3daf966003546109c6565b60035530907f0000000000000000000000000000000000000000000000000000000000000000610bfc565b3461014a57602036600319011261014a576020610832600435600052600060205260016040600020015490565b604051908152f35b3461014a57602036600319011261014a57600435610856610a0b565b61085e610b36565b80156102e55760035480821161048d5781610878916109a3565b6003556108a681337f0000000000000000000000000000000000000000000000000000000000000000610b6f565b6040519081527fca1cf43de312865665f595e88f569f9d5246690c07df26e86aba01147e6d131460203392a26001600255005b3461014a57602036600319011261014a57600435907fffffffff00000000000000000000000000000000000000000000000000000000821680920361014a57817f7965db0b000000000000000000000000000000000000000000000000000000006020931490811561094d575b5015158152f35b7f01ffc9a70000000000000000000000000000000000000000000000000000000091501483610946565b600435906001600160a01b038216820361014a57565b602435906001600160a01b038216820361014a57565b919082039182116109b057565b634e487b7160e01b600052601160045260246000fd5b919082018092116109b057565b90601f8019910116810190811067ffffffffffffffff8211176109f557604052565b634e487b7160e01b600052604160045260246000fd5b3360009081527f7d7ffb7a348e1c6a02869081a26547b49160dd3df72d1d75a570eb9b698292ec602052604090205460ff1615610a4457565b63e2517d3f60e01b600052336004527fa49807205ce4d355092ef5a8a18f56e8913cf4a201fbe287825b095693c2177560245260446000fd5b3360009081527fee57cd81e84075558e8fcc182a1f4393f91fc97f963a136e66b7f949a62f319f602052604090205460ff1615610ab657565b63e2517d3f60e01b600052336004527f97667070c54ef182b0f5858b034beac1b6f3089aa2d3188bb1e8929f4fa9b92960245260446000fd5b80600052600060205260406000206001600160a01b03331660005260205260ff6040600020541615610b1e5750565b63e2517d3f60e01b6000523360045260245260446000fd5b6002805414610b455760028055565b7f3ee5aeb50000000000000000000000000000000000000000000000000000000060005260046000fd5b610bc4926001600160a01b03604051937fa9059cbb000000000000000000000000000000000000000000000000000000006020860152166024840152604483015260448252610bbf6064836109d3565b610d7f565b565b60ff60015416610bd257565b7fd93c06650000000000000000000000000000000000000000000000000000000060005260046000fd5b9091926001600160a01b03610bc49481604051957f23b872dd000000000000000000000000000000000000000000000000000000006020880152166024860152166044840152606483015260648252610bbf6084836109d3565b80600052600060205260406000206001600160a01b03831660005260205260ff6040600020541615600014610ce95780600052600060205260406000206001600160a01b0383166000526020526040600020600160ff198254161790556001600160a01b03339216907f2f8788117e7eff1d82e926ec794901d17c78024a50270940304540a733656f0d600080a4600190565b5050600090565b80600052600060205260406000206001600160a01b03831660005260205260ff60406000205416600014610ce95780600052600060205260406000206001600160a01b038316600052602052604060002060ff1981541690556001600160a01b03339216907ff6391f5c32d9c69d2a47ea670b442974b53935d1edc7fd64eb21e047a839171b600080a4600190565b906000602091828151910182855af11561062d576000513d610de757506001600160a01b0381163b155b610db05750565b6001600160a01b03907f5274afe7000000000000000000000000000000000000000000000000000000006000521660045260246000fd5b60011415610da956fea2646970667358221220fd06327637c07893df176b1540f3c6ed54c06388263e3be20626409ce323c73364736f6c634300081c00332f8788117e7eff1d82e926ec794901d17c78024a50270940304540a733656f0d7d7ffb7a348e1c6a02869081a26547b49160dd3df72d1d75a570eb9b698292ecee57cd81e84075558e8fcc182a1f4393f91fc97f963a136e66b7f949a62f319fad3228b676f7d3cd4284a5443f17f1962b36e491b30a40b2405849e597ba5fb5",
  "devdoc": {
    "details": "S dng AccessControl  qun l ADMIN_ROLE v OPERATOR_ROLE",
    "errors": {
      "AccessControlBadConfirmation()": [
        {
          "details": "The caller of a function is not the expected one. NOTE: Don't confuse with {AccessControlUnauthorizedAccount}."
        }
      ],
      "AccessControlUnauthorizedAccount(address,bytes32)": [
        {
          "details": "The `account` is missing a role."
        }
      ],
      "EnforcedPause()": [
        {
          "details": "The operation failed because the contract is paused."
        }
      ],
      "ExpectedPause()": [
        {
          "details": "The operation failed because the contract is not paused."
        }
      ],
      "ReentrancyGuardReentrantCall()": [
        {
          "details": "Unauthorized reentrant call."
        }
      ],
      "SafeERC20FailedOperation(address)": [
        {
          "details": "An operation with an ERC-20 token failed."
        }
      ]
    },
    "events": {
      "Paused(address)": {
        "details": "Emitted when the pause is triggered by `account`."
      },
      "RoleAdminChanged(bytes32,bytes32,bytes32)": {
        "details": "Emitted when `newAdminRole` is set as ``role``'s admin role, replacing `previousAdminRole` `DEFAULT_ADMIN_ROLE` is the starting admin for all roles, despite {RoleAdminChanged} not being emitted to signal this."
      },
      "RoleGranted(bytes32,address,address)": {
        "details": "Emitted when `account` is granted `role`. `sender` is the account that originated the contract call. This account bears the admin role (for the granted role). Expected in cases where the role was granted using the internal {AccessControl-_grantRole}."
      },
      "RoleRevoked(bytes32,address,address)": {
        "details": "Emitted when `account` is revoked `role`. `sender` is the account that originated the contract call:   - if using `revokeRole`, it is the admin role bearer   - if using `renounceRole`, it is the role bearer (i.e. `account`)"
      },
      "Unpaused(address)": {
        "details": "Emitted when the pause is lifted by `account`."
      }
    },
    "kind": "dev",
    "methods": {
      "depositFund(uint256)": {
        "params": {
          "amount": "S lng token"
        }
      },
      "depositPrincipal(address,uint256)": {
        "params": {
          "amount": "S lng token",
          "from": "a ch gi tin"
        }
      },
      "getRoleAdmin(bytes32)": {
        "details": "Returns the admin role that controls `role`. See {grantRole} and {revokeRole}. To change a role's admin, use {_setRoleAdmin}."
      },
      "grantRole(bytes32,address)": {
        "details": "Grants `role` to `account`. If `account` had not been already granted `role`, emits a {RoleGranted} event. Requirements: - the caller must have ``role``'s admin role. May emit a {RoleGranted} event."
      },
      "hasRole(bytes32,address)": {
        "details": "Returns `true` if `account` has been granted `role`."
      },
      "paused()": {
        "details": "Returns true if the contract is paused, and false otherwise."
      },
      "receiveDirectDeposit(address,uint256)": {
        "details": "Khng cn transferFrom v tin  c transfer trc tip vo",
        "params": {
          "amount": "S lng token  nhn",
          "user": "a ch user ( track)"
        }
      },
      "renounceRole(bytes32,address)": {
        "details": "Revokes `role` from the calling account. Roles are often managed via {grantRole} and {revokeRole}: this function's purpose is to provide a mechanism for accounts to lose their privileges if they are compromised (such as when a trusted device is misplaced). If the calling account had been revoked `role`, emits a {RoleRevoked} event. Requirements: - the caller must be `callerConfirmation`. May emit a {RoleRevoked} event."
      },
      "revokeRole(bytes32,address)": {
        "details": "Revokes `role` from `account`. If `account` had been granted `role`, emits a {RoleRevoked} event. Requirements: - the caller must have ``role``'s admin role. May emit a {RoleRevoked} event."
      },
      "supportsInterface(bytes4)": {
        "details": "See {IERC165-supportsInterface}."
      },
      "withdrawFund(uint256)": {
        "params": {
          "amount": "S lng token"
        }
      },
      "withdrawPrincipal(address,uint256)": {
        "params": {
          "amount": "S lng token",
          "to": "a ch nhn tin"
        }
      }
    },
    "title": "PrincipalVault",
    "version": 1
  },
  "userdoc": {
    "kind": "user",
    "methods": {
      "depositFund(uint256)": {
        "notice": "Admin np thm tin vo vault (nu cn)"
      },
      "depositPrincipal(address,uint256)": {
        "notice": "Nhn tin gc t SavingBank khi user deposit"
      },
      "getActualBalance()": {
        "notice": "Ly s d token thc t ca contract"
      },
      "getBalance()": {
        "notice": "Ly s d vault"
      },
      "pause()": {
        "notice": "Pause/unpause contract"
      },
      "receiveDirectDeposit(address,uint256)": {
        "notice": "Nhn tin trc tip vo vault (cho compound t InterestVault)"
      },
      "withdrawFund(uint256)": {
        "notice": "Admin rt tin tha t vault"
      },
      "withdrawPrincipal(address,uint256)": {
        "notice": "Tr tin gc cho user khi withdraw"
      }
    },
    "notice": "Vault  gi tin gc ca ngi dng khi h gi tit kim",
    "version": 1
  },
  "storageLayout": {
    "storage": [
      {
        "astId": 26,
        "contract": "contracts/PrincipalVault.sol:PrincipalVault",
        "label": "_roles",
        "offset": 0,
        "slot": "0",
        "type": "t_mapping(t_bytes32,t_struct(RoleData)21_storage)"
      },
      {
        "astId": 3373,
        "contract": "contracts/PrincipalVault.sol:PrincipalVault",
        "label": "_paused",
        "offset": 0,
        "slot": "1",
        "type": "t_bool"
      },
      {
        "astId": 3483,
        "contract": "contracts/PrincipalVault.sol:PrincipalVault",
        "label": "_status",
        "offset": 0,
        "slot": "2",
        "type": "t_uint256"
      },
      {
        "astId": 8935,
        "contract": "contracts/PrincipalVault.sol:PrincipalVault",
        "label": "totalBalance",
        "offset": 0,
        "slot": "3",
        "type": "t_uint256"
      }
    ],
    "types": {
      "t_address": {
        "encoding": "inplace",
        "label": "address",
        "numberOfBytes": "20"
      },
      "t_bool": {
        "encoding": "inplace",
        "label": "bool",
        "numberOfBytes": "1"
      },
      "t_bytes32": {
        "encoding": "inplace",
        "label": "bytes32",
        "numberOfBytes": "32"
      },
      "t_mapping(t_address,t_bool)": {
        "encoding": "mapping",
        "key": "t_address",
        "label": "mapping(address => bool)",
        "numberOfBytes": "32",
        "value": "t_bool"
      },
      "t_mapping(t_bytes32,t_struct(RoleData)21_storage)": {
        "encoding": "mapping",
        "key": "t_bytes32",
        "label": "mapping(bytes32 => struct AccessControl.RoleData)",
        "numberOfBytes": "32",
        "value": "t_struct(RoleData)21_storage"
      },
      "t_struct(RoleData)21_storage": {
        "encoding": "inplace",
        "label": "struct AccessControl.RoleData",
        "members": [
          {
            "astId": 18,
            "contract": "contracts/PrincipalVault.sol:PrincipalVault",
            "label": "hasRole",
            "offset": 0,
            "slot": "0",
            "type": "t_mapping(t_address,t_bool)"
          },
          {
            "astId": 20,
            "contract": "contracts/PrincipalVault.sol:PrincipalVault",
            "label": "adminRole",
            "offset": 0,
            "slot": "1",
            "type": "t_bytes32"
          }
        ],
        "numberOfBytes": "64"
      },
      "t_uint256": {
        "encoding": "inplace",
        "label": "uint256",
        "numberOfBytes": "32"
      }
    }
  }
}