{
  "address": "0x88A4805e23ceF4DC0Aeb881Dac233872281822e0",
  "abi": [
    {
      "inputs": [
        {
          "internalType": "address",
          "name": "_token",
          "type": "address"
        },
        {
          "internalType": "address",
          "name": "_principalVault",
          "type": "address"
        },
        {
          "internalType": "address",
          "name": "_interestVault",
          "type": "address"
        },
        {
          "internalType": "address",
          "name": "_nft",
          "type": "address"
        },
        {
          "internalType": "address",
          "name": "_feeReceiver",
          "type": "address"
        },
        {
          "internalType": "address",
          "name": "_admin",
          "type": "address"
        },
        {
          "internalType": "address",
          "name": "_operator",
          "type": "address"
        }
      ],
      "stateMutability": "nonpayable",
      "type": "constructor"
    },
    {
      "inputs": [],
      "name": "AccessControlBadConfirmation",
      "type": "error"
    },
    {
      "inputs": [
        {
          "internalType": "address",
          "name": "account",
          "type": "address"
        },
        {
          "internalType": "bytes32",
          "name": "neededRole",
          "type": "bytes32"
        }
      ],
      "name": "AccessControlUnauthorizedAccount",
      "type": "error"
    },
    {
      "inputs": [],
      "name": "AlreadyMatured",
      "type": "error"
    },
    {
      "inputs": [],
      "name": "AlreadyRenewed",
      "type": "error"
    },
    {
      "inputs": [],
      "name": "EnforcedPause",
      "type": "error"
    },
    {
      "inputs": [],
      "name": "ExpectedPause",
      "type": "error"
    },
    {
      "inputs": [],
      "name": "InvalidAPR",
      "type": "error"
    },
    {
      "inputs": [],
      "name": "InvalidAddress",
      "type": "error"
    },
    {
      "inputs": [],
      "name": "InvalidAmount",
      "type": "error"
    },
    {
      "inputs": [],
      "name": "InvalidMaxDeposit",
      "type": "error"
    },
    {
      "inputs": [],
      "name": "InvalidMinDeposit",
      "type": "error"
    },
    {
      "inputs": [],
      "name": "InvalidNFT",
      "type": "error"
    },
    {
      "inputs": [],
      "name": "InvalidPlanId",
      "type": "error"
    },
    {
      "inputs": [],
      "name": "InvalidTenor",
      "type": "error"
    },
    {
      "inputs": [],
      "name": "InvalidToken",
      "type": "error"
    },
    {
      "inputs": [],
      "name": "InvalidVault",
      "type": "error"
    },
    {
      "inputs": [],
      "name": "NotActiveDeposit",
      "type": "error"
    },
    {
      "inputs": [],
      "name": "NotEnabledPlan",
      "type": "error"
    },
    {
      "inputs": [],
      "name": "NotExceed",
      "type": "error"
    },
    {
      "inputs": [],
      "name": "NotMaturedYet",
      "type": "error"
    },
    {
      "inputs": [],
      "name": "NotOwner",
      "type": "error"
    },
    {
      "inputs": [],
      "name": "ReentrancyGuardReentrantCall",
      "type": "error"
    },
    {
      "anonymous": false,
      "inputs": [
        {
          "indexed": true,
          "internalType": "uint256",
          "name": "depositId",
          "type": "uint256"
        },
        {
          "indexed": true,
          "internalType": "address",
          "name": "user",
          "type": "address"
        },
        {
          "indexed": true,
          "internalType": "uint256",
          "name": "planId",
          "type": "uint256"
        },
        {
          "indexed": false,
          "internalType": "uint256",
          "name": "depositAmount",
          "type": "uint256"
        },
        {
          "indexed": false,
          "internalType": "uint256",
          "name": "maturityTimestamp",
          "type": "uint256"
        }
      ],
      "name": "DepositCertificateOpened",
      "type": "event"
    },
    {
      "anonymous": false,
      "inputs": [
        {
          "indexed": true,
          "internalType": "uint256",
          "name": "depositId",
          "type": "uint256"
        },
        {
          "indexed": true,
          "internalType": "address",
          "name": "user",
          "type": "address"
        },
        {
          "indexed": false,
          "internalType": "uint256",
          "name": "amountReceived",
          "type": "uint256"
        },
        {
          "indexed": false,
          "internalType": "uint256",
          "name": "penaltyAmount",
          "type": "uint256"
        },
        {
          "indexed": false,
          "internalType": "enum SavingBankV2.DepositStatus",
          "name": "finalStatus",
          "type": "uint8"
        }
      ],
      "name": "EarlyWithdrawn",
      "type": "event"
    },
    {
      "anonymous": false,
      "inputs": [
        {
          "indexed": true,
          "internalType": "address",
          "name": "newFeeReceiver",
          "type": "address"
        }
      ],
      "name": "FeeReceiverUpdated",
      "type": "event"
    },
    {
      "anonymous": false,
      "inputs": [
        {
          "indexed": true,
          "internalType": "address",
          "name": "newNFT",
          "type": "address"
        }
      ],
      "name": "NFTUpdated",
      "type": "event"
    },
    {
      "anonymous": false,
      "inputs": [
        {
          "indexed": false,
          "internalType": "address",
          "name": "account",
          "type": "address"
        }
      ],
      "name": "Paused",
      "type": "event"
    },
    {
      "anonymous": false,
      "inputs": [
        {
          "indexed": true,
          "internalType": "uint256",
          "name": "planId",
          "type": "uint256"
        },
        {
          "indexed": false,
          "internalType": "uint256",
          "name": "tenorDays",
          "type": "uint256"
        },
        {
          "indexed": false,
          "internalType": "uint256",
          "name": "aprBps",
          "type": "uint256"
        },
        {
          "indexed": false,
          "internalType": "uint256",
          "name": "minDeposit",
          "type": "uint256"
        },
        {
          "indexed": false,
          "internalType": "uint256",
          "name": "maxDeposit",
          "type": "uint256"
        },
        {
          "indexed": false,
          "internalType": "uint256",
          "name": "earlyWithdrawPenaltyBps",
          "type": "uint256"
        }
      ],
      "name": "PlanCreated",
      "type": "event"
    },
    {
      "anonymous": false,
      "inputs": [
        {
          "indexed": true,
          "internalType": "uint256",
          "name": "planId",
          "type": "uint256"
        },
        {
          "indexed": false,
          "internalType": "bool",
          "name": "isEnabled",
          "type": "bool"
        }
      ],
      "name": "PlanUpdated",
      "type": "event"
    },
    {
      "anonymous": false,
      "inputs": [
        {
          "indexed": true,
          "internalType": "uint256",
          "name": "oldDepositId",
          "type": "uint256"
        },
        {
          "indexed": true,
          "internalType": "uint256",
          "name": "newDepositId",
          "type": "uint256"
        },
        {
          "indexed": false,
          "internalType": "uint256",
          "name": "newPrincipal",
          "type": "uint256"
        }
      ],
      "name": "Renewed",
      "type": "event"
    },
    {
      "anonymous": false,
      "inputs": [
        {
          "indexed": true,
          "internalType": "bytes32",
          "name": "role",
          "type": "bytes32"
        },
        {
          "indexed": true,
          "internalType": "bytes32",
          "name": "previousAdminRole",
          "type": "bytes32"
        },
        {
          "indexed": true,
          "internalType": "bytes32",
          "name": "newAdminRole",
          "type": "bytes32"
        }
      ],
      "name": "RoleAdminChanged",
      "type": "event"
    },
    {
      "anonymous": false,
      "inputs": [
        {
          "indexed": true,
          "internalType": "bytes32",
          "name": "role",
          "type": "bytes32"
        },
        {
          "indexed": true,
          "internalType": "address",
          "name": "account",
          "type": "address"
        },
        {
          "indexed": true,
          "internalType": "address",
          "name": "sender",
          "type": "address"
        }
      ],
      "name": "RoleGranted",
      "type": "event"
    },
    {
      "anonymous": false,
      "inputs": [
        {
          "indexed": true,
          "internalType": "bytes32",
          "name": "role",
          "type": "bytes32"
        },
        {
          "indexed": true,
          "internalType": "address",
          "name": "account",
          "type": "address"
        },
        {
          "indexed": true,
          "internalType": "address",
          "name": "sender",
          "type": "address"
        }
      ],
      "name": "RoleRevoked",
      "type": "event"
    },
    {
      "anonymous": false,
      "inputs": [
        {
          "indexed": false,
          "internalType": "address",
          "name": "account",
          "type": "address"
        }
      ],
      "name": "Unpaused",
      "type": "event"
    },
    {
      "anonymous": false,
      "inputs": [
        {
          "indexed": true,
          "internalType": "address",
          "name": "newPrincipalVault",
          "type": "address"
        },
        {
          "indexed": true,
          "internalType": "address",
          "name": "newInterestVault",
          "type": "address"
        }
      ],
      "name": "VaultUpdated",
      "type": "event"
    },
    {
      "anonymous": false,
      "inputs": [
        {
          "indexed": true,
          "internalType": "uint256",
          "name": "depositId",
          "type": "uint256"
        },
        {
          "indexed": true,
          "internalType": "address",
          "name": "user",
          "type": "address"
        },
        {
          "indexed": false,
          "internalType": "uint256",
          "name": "principalAmount",
          "type": "uint256"
        },
        {
          "indexed": false,
          "internalType": "uint256",
          "name": "interestAmount",
          "type": "uint256"
        },
        {
          "indexed": false,
          "internalType": "enum SavingBankV2.DepositStatus",
          "name": "finalStatus",
          "type": "uint8"
        }
      ],
      "name": "Withdrawn",
      "type": "event"
    },
    {
      "inputs": [],
      "name": "ADMIN_ROLE",
      "outputs": [
        {
          "internalType": "bytes32",
          "name": "",
          "type": "bytes32"
        }
      ],
      "stateMutability": "view",
      "type": "function"
    },
    {
      "inputs": [],
      "name": "DEFAULT_ADMIN_ROLE",
      "outputs": [
        {
          "internalType": "bytes32",
          "name": "",
          "type": "bytes32"
        }
      ],
      "stateMutability": "view",
      "type": "function"
    },
    {
      "inputs": [],
      "name": "OPERATOR_ROLE",
      "outputs": [
        {
          "internalType": "bytes32",
          "name": "",
          "type": "bytes32"
        }
      ],
      "stateMutability": "view",
      "type": "function"
    },
    {
      "inputs": [
        {
          "internalType": "uint256",
          "name": "tenorDays",
          "type": "uint256"
        },
        {
          "internalType": "uint256",
          "name": "aprBps",
          "type": "uint256"
        },
        {
          "internalType": "uint256",
          "name": "minDeposit",
          "type": "uint256"
        },
        {
          "internalType": "uint256",
          "name": "maxDeposit",
          "type": "uint256"
        },
        {
          "internalType": "uint256",
          "name": "earlyWithdrawPenaltyBps",
          "type": "uint256"
        }
      ],
      "name": "createPlan",
      "outputs": [],
      "stateMutability": "nonpayable",
      "type": "function"
    },
    {
      "inputs": [
        {
          "internalType": "uint256",
          "name": "",
          "type": "uint256"
        }
      ],
      "name": "depositCertificates",
      "outputs": [
        {
          "internalType": "address",
          "name": "owner",
          "type": "address"
        },
        {
          "internalType": "uint256",
          "name": "planId",
          "type": "uint256"
        },
        {
          "internalType": "uint256",
          "name": "principal",
          "type": "uint256"
        },
        {
          "internalType": "uint256",
          "name": "startAt",
          "type": "uint256"
        },
        {
          "internalType": "uint256",
          "name": "maturityAt",
          "type": "uint256"
        },
        {
          "internalType": "enum SavingBankV2.DepositStatus",
          "name": "status",
          "type": "uint8"
        },
        {
          "internalType": "uint256",
          "name": "renewedDepositId",
          "type": "uint256"
        },
        {
          "internalType": "uint256",
          "name": "snapshotAprBps",
          "type": "uint256"
        },
        {
          "internalType": "uint256",
          "name": "snapshotTenorDays",
          "type": "uint256"
        },
        {
          "internalType": "uint256",
          "name": "snapshotEarlyWithdrawPenaltyBps",
          "type": "uint256"
        }
      ],
      "stateMutability": "view",
      "type": "function"
    },
    {
      "inputs": [
        {
          "internalType": "uint256",
          "name": "depositId",
          "type": "uint256"
        }
      ],
      "name": "earlyWithdraw",
      "outputs": [],
      "stateMutability": "nonpayable",
      "type": "function"
    },
    {
      "inputs": [],
      "name": "feeReceiver",
      "outputs": [
        {
          "internalType": "address",
          "name": "",
          "type": "address"
        }
      ],
      "stateMutability": "view",
      "type": "function"
    },
    {
      "inputs": [
        {
          "internalType": "uint256",
          "name": "depositId",
          "type": "uint256"
        }
      ],
      "name": "getCalculateInterest",
      "outputs": [
        {
          "internalType": "uint256",
          "name": "",
          "type": "uint256"
        }
      ],
      "stateMutability": "view",
      "type": "function"
    },
    {
      "inputs": [
        {
          "internalType": "uint256",
          "name": "depositId",
          "type": "uint256"
        }
      ],
      "name": "getDepositInfo",
      "outputs": [
        {
          "internalType": "address",
          "name": "owner",
          "type": "address"
        },
        {
          "internalType": "uint256",
          "name": "planId",
          "type": "uint256"
        },
        {
          "internalType": "uint256",
          "name": "principal",
          "type": "uint256"
        },
        {
          "internalType": "uint256",
          "name": "startAt",
          "type": "uint256"
        },
        {
          "internalType": "uint256",
          "name": "maturityAt",
          "type": "uint256"
        },
        {
          "internalType": "enum SavingBankV2.DepositStatus",
          "name": "status",
          "type": "uint8"
        },
        {
          "internalType": "uint256",
          "name": "renewedDepositId",
          "type": "uint256"
        }
      ],
      "stateMutability": "view",
      "type": "function"
    },
    {
      "inputs": [
        {
          "internalType": "uint256",
          "name": "planId",
          "type": "uint256"
        }
      ],
      "name": "getPlanInfo",
      "outputs": [
        {
          "internalType": "uint256",
          "name": "tenorDays",
          "type": "uint256"
        },
        {
          "internalType": "uint256",
          "name": "aprBps",
          "type": "uint256"
        },
        {
          "internalType": "uint256",
          "name": "minDeposit",
          "type": "uint256"
        },
        {
          "internalType": "uint256",
          "name": "maxDeposit",
          "type": "uint256"
        },
        {
          "internalType": "uint256",
          "name": "earlyWithdrawPenaltyBps",
          "type": "uint256"
        },
        {
          "internalType": "bool",
          "name": "enabled",
          "type": "bool"
        }
      ],
      "stateMutability": "view",
      "type": "function"
    },
    {
      "inputs": [
        {
          "internalType": "bytes32",
          "name": "role",
          "type": "bytes32"
        }
      ],
      "name": "getRoleAdmin",
      "outputs": [
        {
          "internalType": "bytes32",
          "name": "",
          "type": "bytes32"
        }
      ],
      "stateMutability": "view",
      "type": "function"
    },
    {
      "inputs": [
        {
          "internalType": "address",
          "name": "user",
          "type": "address"
        }
      ],
      "name": "getUserDepositIds",
      "outputs": [
        {
          "internalType": "uint256[]",
          "name": "",
          "type": "uint256[]"
        }
      ],
      "stateMutability": "view",
      "type": "function"
    },
    {
      "inputs": [
        {
          "internalType": "bytes32",
          "name": "role",
          "type": "bytes32"
        },
        {
          "internalType": "address",
          "name": "account",
          "type": "address"
        }
      ],
      "name": "grantRole",
      "outputs": [],
      "stateMutability": "nonpayable",
      "type": "function"
    },
    {
      "inputs": [
        {
          "internalType": "bytes32",
          "name": "role",
          "type": "bytes32"
        },
        {
          "internalType": "address",
          "name": "account",
          "type": "address"
        }
      ],
      "name": "hasRole",
      "outputs": [
        {
          "internalType": "bool",
          "name": "",
          "type": "bool"
        }
      ],
      "stateMutability": "view",
      "type": "function"
    },
    {
      "inputs": [],
      "name": "interestVault",
      "outputs": [
        {
          "internalType": "contract IInterestVault",
          "name": "",
          "type": "address"
        }
      ],
      "stateMutability": "view",
      "type": "function"
    },
    {
      "inputs": [],
      "name": "nextDepositId",
      "outputs": [
        {
          "internalType": "uint256",
          "name": "",
          "type": "uint256"
        }
      ],
      "stateMutability": "view",
      "type": "function"
    },
    {
      "inputs": [],
      "name": "nextPlanId",
      "outputs": [
        {
          "internalType": "uint256",
          "name": "",
          "type": "uint256"
        }
      ],
      "stateMutability": "view",
      "type": "function"
    },
    {
      "inputs": [],
      "name": "nft",
      "outputs": [
        {
          "internalType": "contract ISavingBankNFT",
          "name": "",
          "type": "address"
        }
      ],
      "stateMutability": "view",
      "type": "function"
    },
    {
      "inputs": [
        {
          "internalType": "uint256",
          "name": "planId",
          "type": "uint256"
        },
        {
          "internalType": "uint256",
          "name": "depositAmount",
          "type": "uint256"
        }
      ],
      "name": "openDepositCertificate",
      "outputs": [],
      "stateMutability": "nonpayable",
      "type": "function"
    },
    {
      "inputs": [],
      "name": "pause",
      "outputs": [],
      "stateMutability": "nonpayable",
      "type": "function"
    },
    {
      "inputs": [],
      "name": "paused",
      "outputs": [
        {
          "internalType": "bool",
          "name": "",
          "type": "bool"
        }
      ],
      "stateMutability": "view",
      "type": "function"
    },
    {
      "inputs": [],
      "name": "principalVault",
      "outputs": [
        {
          "internalType": "contract IPrincipalVault",
          "name": "",
          "type": "address"
        }
      ],
      "stateMutability": "view",
      "type": "function"
    },
    {
      "inputs": [
        {
          "internalType": "uint256",
          "name": "depositId",
          "type": "uint256"
        },
        {
          "internalType": "uint256",
          "name": "newPlanId",
          "type": "uint256"
        }
      ],
      "name": "renew",
      "outputs": [],
      "stateMutability": "nonpayable",
      "type": "function"
    },
    {
      "inputs": [
        {
          "internalType": "bytes32",
          "name": "role",
          "type": "bytes32"
        },
        {
          "internalType": "address",
          "name": "callerConfirmation",
          "type": "address"
        }
      ],
      "name": "renounceRole",
      "outputs": [],
      "stateMutability": "nonpayable",
      "type": "function"
    },
    {
      "inputs": [
        {
          "internalType": "bytes32",
          "name": "role",
          "type": "bytes32"
        },
        {
          "internalType": "address",
          "name": "account",
          "type": "address"
        }
      ],
      "name": "revokeRole",
      "outputs": [],
      "stateMutability": "nonpayable",
      "type": "function"
    },
    {
      "inputs": [
        {
          "internalType": "uint256",
          "name": "",
          "type": "uint256"
        }
      ],
      "name": "savingPlans",
      "outputs": [
        {
          "internalType": "uint256",
          "name": "tenorDays",
          "type": "uint256"
        },
        {
          "internalType": "uint256",
          "name": "aprBps",
          "type": "uint256"
        },
        {
          "internalType": "uint256",
          "name": "minDeposit",
          "type": "uint256"
        },
        {
          "internalType": "uint256",
          "name": "maxDeposit",
          "type": "uint256"
        },
        {
          "internalType": "uint256",
          "name": "earlyWithdrawPenaltyBps",
          "type": "uint256"
        },
        {
          "internalType": "bool",
          "name": "enabled",
          "type": "bool"
        }
      ],
      "stateMutability": "view",
      "type": "function"
    },
    {
      "inputs": [
        {
          "internalType": "address",
          "name": "newFeeReceiver",
          "type": "address"
        }
      ],
      "name": "setFeeReceiver",
      "outputs": [],
      "stateMutability": "nonpayable",
      "type": "function"
    },
    {
      "inputs": [
        {
          "internalType": "address",
          "name": "newNFT",
          "type": "address"
        }
      ],
      "name": "setNFT",
      "outputs": [],
      "stateMutability": "nonpayable",
      "type": "function"
    },
    {
      "inputs": [
        {
          "internalType": "address",
          "name": "newPrincipalVault",
          "type": "address"
        },
        {
          "internalType": "address",
          "name": "newInterestVault",
          "type": "address"
        }
      ],
      "name": "setVaults",
      "outputs": [],
      "stateMutability": "nonpayable",
      "type": "function"
    },
    {
      "inputs": [
        {
          "internalType": "bytes4",
          "name": "interfaceId",
          "type": "bytes4"
        }
      ],
      "name": "supportsInterface",
      "outputs": [
        {
          "internalType": "bool",
          "name": "",
          "type": "bool"
        }
      ],
      "stateMutability": "view",
      "type": "function"
    },
    {
      "inputs": [],
      "name": "token",
      "outputs": [
        {
          "internalType": "contract IERC20",
          "name": "",
          "type": "address"
        }
      ],
      "stateMutability": "view",
      "type": "function"
    },
    {
      "inputs": [],
      "name": "unpause",
      "outputs": [],
      "stateMutability": "nonpayable",
      "type": "function"
    },
    {
      "inputs": [
        {
          "internalType": "uint256",
          "name": "planId",
          "type": "uint256"
        },
        {
          "internalType": "uint256",
          "name": "tenorDays",
          "type": "uint256"
        },
        {
          "internalType": "uint256",
          "name": "aprBps",
          "type": "uint256"
        },
        {
          "internalType": "uint256",
          "name": "minDeposit",
          "type": "uint256"
        },
        {
          "internalType": "uint256",
          "name": "maxDeposit",
          "type": "uint256"
        },
        {
          "internalType": "uint256",
          "name": "earlyWithdrawPenaltyBps",
          "type": "uint256"
        }
      ],
      "name": "updatePlan",
      "outputs": [],
      "stateMutability": "nonpayable",
      "type": "function"
    },
    {
      "inputs": [
        {
          "internalType": "uint256",
          "name": "planId",
          "type": "uint256"
        },
        {
          "internalType": "bool",
          "name": "isEnabled",
          "type": "bool"
        }
      ],
      "name": "updatePlanStatus",
      "outputs": [],
      "stateMutability": "nonpayable",
      "type": "function"
    },
    {
      "inputs": [
        {
          "internalType": "address",
          "name": "",
          "type": "address"
        },
        {
          "internalType": "uint256",
          "name": "",
          "type": "uint256"
        }
      ],
      "name": "userDepositIds",
      "outputs": [
        {
          "internalType": "uint256",
          "name": "",
          "type": "uint256"
        }
      ],
      "stateMutability": "view",
      "type": "function"
    },
    {
      "inputs": [
        {
          "internalType": "uint256",
          "name": "depositId",
          "type": "uint256"
        }
      ],
      "name": "withdraw",
      "outputs": [],
      "stateMutability": "nonpayable",
      "type": "function"
    }
  ],
  "transactionHash": "0xa559e63673054e6a1c5a39ed57e7cdd730c41369d8ab5b06dcc605280073f059",
  "args": [
    "0xe264592FC0402d449E9388108E85C13ED8c76D5a",
    "0x2a0dEb355ac0F1008375e57e93871Bef408B3436",
    "0x386a5c3308c10c7A5A1F65EAAEf0ec1665Dc3b0E",
    "0x396b84f8Ff1cF125Da399F9a7D5A34179c06C81F",
    "0x4Fb3Fd2c8Af9Ce5250463823DbF8B5a3d013e8bd",
    "0x4Fb3Fd2c8Af9Ce5250463823DbF8B5a3d013e8bd",
    "0x4Fb3Fd2c8Af9Ce5250463823DbF8B5a3d013e8bd"
  ],
  "numDeployments": 1,
  "solcInputHash": "c1cdbd97025c7207c0f8504acfe13442",
  "bytecode": "0x60a0346101c157601f61254838819003918201601f19168301916001600160401b038311848410176101c65780849260e0946040528339810103126101c157610047816101dc565b610053602083016101dc565b61005f604084016101dc565b9261006c606082016101dc565b610078608083016101dc565b61009060c061008960a086016101dc565b94016101dc565b6001600255946001600160a01b03169384156101b0576001600160a01b031695861561019f576001600160a01b031691821561019f576001600160a01b031690811561018e576001600160a01b031691821561017d576001600160a01b0384161561017d576001600160a01b0386161561017d576101649661015e9560805260018060a01b0319600954161760095560018060a01b0319600a541617600a5560018060a01b0319600354161760035560018060a01b0319600b541617600b55600160045560016005556101f0565b5061028e565b506040516121c190816103278239608051816101cc0152f35b63e6c4247b60e01b60005260046000fd5b63079f151f60e11b60005260046000fd5b630681d31960e51b60005260046000fd5b63c1ab6dc160e01b60005260046000fd5b600080fd5b634e487b7160e01b600052604160045260246000fd5b51906001600160a01b03821682036101c157565b6001600160a01b0381166000908152600080516020612508833981519152602052604090205460ff16610288576001600160a01b0316600081815260008051602061250883398151915260205260408120805460ff191660011790553391907fa49807205ce4d355092ef5a8a18f56e8913cf4a201fbe287825b095693c21775906000805160206124e88339815191529080a4600190565b50600090565b6001600160a01b0381166000908152600080516020612528833981519152602052604090205460ff16610288576001600160a01b0316600081815260008051602061252883398151915260205260408120805460ff191660011790553391907f97667070c54ef182b0f5858b034beac1b6f3089aa2d3188bb1e8929f4fa9b929906000805160206124e88339815191529080a460019056fe608080604052600436101561001357600080fd5b600090813560e01c90816301ffc9a714611bb2575080630b2b289714611a77578063248a9ca314611a495780632e1a7d4d146118475780632f2ff15d1461180657806336568abe146117a857806337e222ff1461170c5780633f4ba83a1461168b57806347ccca02146116645780634970a50d146114e25780634c451a6a146114245780635328c2bf1461130a5780635c975abb146112e75780635f8d26b2146112c95780636933af621461124e5780636b5b96961461100257806375b238fc14610fc75780637838e40814610f235780638070a4bd14610f055780638456cb5914610eab5780638e946c8014610e8457806391d1485414610e385780639b7f801914610e11578063a217fddf14610df5578063a22f637014610ad5578063b3f0067414610aae578063c475abff14610572578063cfd45d79146104cf578063d4e4487d1461041a578063d547741f146103d0578063d623662814610379578063e00006b014610352578063efdcd974146102c0578063f56e9c661461022e578063f5b541a6146101f35763fc0c546a146101ad57600080fd5b346101f057806003193601126101f05760206040516001600160a01b037f0000000000000000000000000000000000000000000000000000000000000000168152f35b80fd5b50346101f057806003193601126101f05760206040517f97667070c54ef182b0f5858b034beac1b6f3089aa2d3188bb1e8929f4fa9b9298152f35b50346101f05760203660031901126101f0576001600160a01b03610250611c6d565b610258611e70565b16801561029857806001600160a01b031960035416176003557f89661d6083f18044f371157adbda87891c53c79941f192f1c758ca92aabc7ef68280a280f35b6004827f0f3e2a3e000000000000000000000000000000000000000000000000000000008152fd5b50346101f05760203660031901126101f0576001600160a01b036102e2611c6d565b6102ea611e70565b16801561032a57806001600160a01b0319600b541617600b557f27aae5db36d94179909d019ae0b1ac7c16d96d953148f63c0f6a0a9c8ead79ee8280a280f35b6004827fe6c4247b000000000000000000000000000000000000000000000000000000008152fd5b50346101f057806003193601126101f05760206001600160a01b0360095416604051908152f35b50346101f05760403660031901126101f057610393611c6d565b6001600160a01b03168152600860205260408120805460243592908310156101f05760206103c18484611cbc565b90549060031b1c604051908152f35b50346101f05760403660031901126101f0576104166004356103f0611c52565b9061041161040c82600052600060205260016040600020015490565b611ee2565b6120fc565b5080f35b50346101f05760203660031901126101f0576001600160a01b0361043c611c6d565b168152600860205260408120604051908160208254918281520190819285526020852090855b8181106104b95750505082610478910383611d51565b604051928392602084019060208552518091526040840192915b8181106104a0575050500390f35b8251845285945060209384019390920191600101610492565b8254845260209093019260019283019201610462565b50346101f05760203660031901126101f05760406101409160043581526007602052206001600160a01b03815416906001810154906002810154600382015461055a600484015460ff6005860154169060068601549360078701549560096008890154980154986040519a8b5260208b015260408a01526060890152608088015260a0870190611c83565b60c085015260e0840152610100830152610120820152f35b50346101f05761058136611ca6565b61058c929192611f5f565b828252600760205260408220926001600160a01b038454163303610a865760048401544210610a775760068401908154610a4f57600585019060ff8254166004811015610a3b57610a2c57838552600660205260408520604051906105f082611d02565b80548252600181015460208301908152600282015460408401526003820154606084015260ff60056004840154936080860194855201541615801560a0850152610a045761064f600297989961064586611f98565b9889910154611db7565b96600554968451620151808102908082046201518014901517156109f0578b929161067b8a9242611db7565b98600360ff1982541617905555338252600860205261069d8860408420611dc4565b6106a8600554611d73565b6005556001600160a01b03600a54166001600160a01b0360095416813b156109ec5783916064839260405194859384927fdd76c6a400000000000000000000000000000000000000000000000000000000845260048401523360248401528760448401525af19081156109e15783916109cc575b50506001600160a01b0360095416803b156109c8576040517f8acb153d000000000000000000000000000000000000000000000000000000008152336004820152602481019290925282908290604490829084905af1801561098c576109af575b50505191519051906040519261079284611d34565b3384528387878c602084018d815260408501908d82526001600160a01b03806040606089019542875260808a0197885260a08a0198818a5261012060c08c019b838d5260e081019d8e5261010081019e8f52019d8e5281526007602052209b5116166001600160a01b03198b5416178a555160018a015551600289015551600388015551600487015551600481101561099b579061083860099594939260058801611cea565b51600686015551600785015551600884015551910155856001600160a01b0360035416803b1561099757818091602460405180948193630852cd8d60e31b83528860048401525af1801561098c57610977575b50506001600160a01b03600354169086823b156101f057604051632991fa3b60e21b81523360048201526024810186905260448101889052606481018790529281908490608490829084905af192831561096a57859361094b575b50507fef4945c022002aa13f581a640adff2a9844b9c201dd4eef47bc35c1a25f2ac146020604051878152a360405192835260208301527fdba974e8e3e1efa88c12b627bcb96adf576cc4ea2cc79d053c7f7523f900255c60403393a4600160025580f35b819293509061095991611d51565b61096657829086386108e6565b8580fd5b50604051903d90823e3d90fd5b8161098191611d51565b61096657853861088b565b6040513d84823e3d90fd5b5080fd5b60248c634e487b7160e01b81526021600452fd5b816109b991611d51565b6109c457883861077d565b8880fd5b8280fd5b816109d691611d51565b61099757813861071c565b6040513d85823e3d90fd5b8380fd5b60248c634e487b7160e01b81526011600452fd5b6004887fb681dee6000000000000000000000000000000000000000000000000000000008152fd5b600485631ac962e760e11b8152fd5b602486634e487b7160e01b81526021600452fd5b6004847f8c05ae73000000000000000000000000000000000000000000000000000000008152fd5b60048363794150ab60e11b8152fd5b6004837f30cd7471000000000000000000000000000000000000000000000000000000008152fd5b50346101f057806003193601126101f05760206001600160a01b03600b5416604051908152f35b50346101f057610ae436611ca6565b610aec611f29565b610af4611f5f565b818352600660205260408320604051610b0c81611d02565b81548152600182015490602081019182526002830154604082019081526003840154906060830191825260ff60056004870154966080860197885201541615801560a0850152610a0457518510610de657518015159081610ddc575b50610dcd5760055492815162015180810290808204620151801490151715610db957610b949042611db7565b9251915190519060405192610ba884611d34565b3384528386868b602084018c815260408501908c82526001600160a01b03806040606089019542875260808a0197885260a08a0198818a5261012060c08c019b838d5260e081019d8e5261010081019e8f52019d8e5281526007602052209b5116166001600160a01b03198b5416178a555160018a0155516002890155516003880155516004870155516004811015610da55790610c4e60099594939260058801611cea565b516006860155516007850155516008840155519101553385526008602052610c798260408720611dc4565b610c84600554611d73565b600555846001600160a01b0360095416803b15610997576040517f24f2c463000000000000000000000000000000000000000000000000000000008152336004820152602481018690529082908290604490829084905af1801561098c57610d90575b506001600160a01b0360035416803b1561099757604051632991fa3b60e21b81523360048201526024810185905260448101879052606481018690529082908290608490829084905af1801561098c57610d77575b505060405192835260208301527fdba974e8e3e1efa88c12b627bcb96adf576cc4ea2cc79d053c7f7523f900255c60403393a4600160025580f35b81610d8191611d51565b610d8c578438610d3c565b8480fd5b81610d9a91611d51565b610d8c578438610ce7565b60248b634e487b7160e01b81526021600452fd5b602488634e487b7160e01b81526011600452fd5b60048663162908e360e11b8152fd5b9050841138610b68565b60048763162908e360e11b8152fd5b50346101f057806003193601126101f057602090604051908152f35b50346101f057806003193601126101f05760206001600160a01b03600a5416604051908152f35b50346101f05760403660031901126101f0576001600160a01b036040610e5c611c52565b92600435815280602052209116600052602052602060ff604060002054166040519015158152f35b50346101f05760203660031901126101f0576020610ea3600435611f98565b604051908152f35b50346101f057806003193601126101f057610ec4611e70565b610ecc611f29565b600160ff19815416176001557f62e78cea01bee320cd4e420270b5ea74000d11b0c9f74754ebdbfc544b05a2586020604051338152a180f35b50346101f057806003193601126101f0576020600554604051908152f35b50346101f05760403660031901126101f057600435602435801515908181036109ec57610f4e611dfe565b82158015610fbb575b610fac577fe8898c20571732660341e9bd58210cbce79a036302e465085395645040fd1cc291610fa260209285875260068452600560408820019060ff801983541691151516179055565b604051908152a280f35b60048463410c69a160e11b8152fd5b50600454831015610f57565b50346101f057806003193601126101f05760206040517fa49807205ce4d355092ef5a8a18f56e8913cf4a201fbe287825b095693c217758152f35b50346101f05760203660031901126101f05760043561101f611f5f565b808252600760205260408220906001600160a01b038254163303610a86576005820160ff815416600481101561123a5761122b576004830154421015611203576127106110756009600286015495015485611da4565b04908184039384116111ef57600260ff19825416179055836001600160a01b0360095416803b1561099757604051630e37020160e31b8152336004820152602481018690529082908290604490829084905af1801561098c576111da575b506001600160a01b03600954166001600160a01b03600b541690803b156109c857604051630e37020160e31b81526001600160a01b039290921660048301526024820184905282908290604490829084905af1801561098c576111c5575b506001600160a01b0360035416803b1561099757818091602460405180948193630852cd8d60e31b83528960048401525af1801561098c576111b0575b50506040519283526020830152600260408301527ff315590199e7b0c0d1aa4ffe8cf41d98101d12f39569ffb63e56e2938464287460603393a3600160025580f35b816111ba91611d51565b6109ec57833861116e565b816111cf91611d51565b6109ec578338611131565b816111e491611d51565b6109ec5783386110d3565b602485634e487b7160e01b81526011600452fd5b6004847fb453c220000000000000000000000000000000000000000000000000000000008152fd5b600484631ac962e760e11b8152fd5b602485634e487b7160e01b81526021600452fd5b50346101f05760203660031901126101f057604090600435815260066020522080546112c5600183015492600281015490600381015460ff6005600484015493015416926040519687968794919260a0949197969360c0870198875260208701526040860152606085015260808401521515910152565b0390f35b50346101f057806003193601126101f0576020600454604051908152f35b50346101f057806003193601126101f057602060ff600154166040519015158152f35b50346101f05760203660031901126101f05760043581526007602052604081206040519061133782611d34565b6001600160a01b0381541682526001810154916020810192835260028201549160408201928352600381015460608301908152600482015491608084019283526001600160a01b0360ff6005830154169461139660a082019687611d98565b600960068401549360c08301948552600781015460e084015260088101546101008401520154610120820152511695519451915192519351966004881015611410575091611409939160e097935195604051978852602088015260408701526060860152608085015260a0840190611c83565b60c0820152f35b80634e487b7160e01b602492526021600452fd5b50346101f05760403660031901126101f05761143e611c6d565b6001600160a01b0361144e611c52565b91611457611e70565b169081156114ba576001600160a01b03169081156114ba57806001600160a01b03196009541617600955816001600160a01b0319600a541617600a557f483bdedaaf23706a9800ac1af0d852b34927780d79f9d6ba60a80c7cad75ea398380a380f35b6004837fd03a6320000000000000000000000000000000000000000000000000000000008152fd5b50346101f05760a03660031901126101f05760243560043560843560643560443561150b611dfe565b8315611655578415611646578015611637578115158061162e575b61161f5782158015611614575b61160657917fe34c36caaea611ba65a3775498a1ab167c7cf9272b319ab6f0ac00f43869cd94939160a093600454966115da60405161157181611d02565b86815260058a8c602084018681526040850188815260608601918a8352604060808801948d86528f8901966001885281526006602052209651875551600187015551600286015551600385015551600484015551151591019060ff801983541691151516179055565b6115e5600454611d73565b6004556040519485526020850152604084015260608301526080820152a280f35b60048662375ab960e11b8152fd5b506127108311611533565b60048663f112120b60e01b8152fd5b50808210611526565b600486634f4940eb60e11b8152fd5b60048663f3f7756760e01b8152fd5b6004866382d4642560e01b8152fd5b50346101f057806003193601126101f05760206001600160a01b0360035416604051908152f35b50346101f057806003193601126101f0576116a4611e70565b60015460ff8116156116e45760ff19166001557f5db9ee0a495bf2e6ff9c91a7834c1ba4fdd244a5e8aa4e537bd38aeae4b073aa6020604051338152a180f35b6004827f8dfc202b000000000000000000000000000000000000000000000000000000008152fd5b50346101f05760203660031901126101f05760409060043581526006602052206040519061173982611d02565b805480835260018201546020808501829052600284015460408087018290526003860154606080890182905260048801546080808b0182905260059099015460ff16151560a09a8b0181905284519889529588019690965291860192909252840152928201529182015260c090f35b50346101f05760403660031901126101f0576117c2611c52565b336001600160a01b038216036117de57610416906004356120fc565b6004827f6697b232000000000000000000000000000000000000000000000000000000008152fd5b50346101f05760403660031901126101f057610416600435611826611c52565b9061184261040c82600052600060205260016040600020015490565b612062565b50346101f05760203660031901126101f057600435611864611f29565b61186c611f5f565b808252600760205260408220906001600160a01b038254163303610a8657600582019160ff835416600481101561123a5761122b5760048101544210611a3a576118b582611f98565b835460ff1916600117909355600a546001600160a01b0316803b15610d8c576040517f1b7623be000000000000000000000000000000000000000000000000000000008152336004820152602481018590529085908290604490829084905af18015611a2f57611a1b575b508360026001600160a01b0360095416920191825490803b156109c857604051630e37020160e31b8152336004820152602481019290925282908290604490829084905af1801561098c57611a06575b506001600160a01b0360035416803b1561099757818091602460405180948193630852cd8d60e31b83528960048401525af1801561098c576119f1575b505054916040519283526020830152600160408301527f1b78d3f42803eb83fddad03fb3d4f7fde01da63777e04c69038542b6396dd3f560603393a3600160025580f35b816119fb91611d51565b6109ec5783386119ad565b81611a1091611d51565b6109ec578338611970565b84611a2891959295611d51565b9238611920565b6040513d87823e3d90fd5b60048463794150ab60e11b8152fd5b50346101f05760203660031901126101f0576020610ea3600435600052600060205260016040600020015490565b50346101f05760c03660031901126101f05760043560243560a435608435606435604435611aa3611dfe565b85158015611ba6575b611b97578415611b88578015611b79578115611b6a5782151580611b61575b611b525783158015611b47575b611b39579360209360ff936005937fe8898c20571732660341e9bd58210cbce79a036302e465085395645040fd1cc297898b526006885260408b2094855560018501556002840155600383015560048201550154166040519015158152a280f35b60048762375ab960e11b8152fd5b506127108411611ad8565b60048763f112120b60e01b8152fd5b50818310611acb565b600487634f4940eb60e11b8152fd5b60048763f3f7756760e01b8152fd5b6004876382d4642560e01b8152fd5b60048763410c69a160e11b8152fd5b50600454861015611aac565b905034610997576020366003190112610997576004357fffffffff0000000000000000000000000000000000000000000000000000000081168091036109c857602092507f7965db0b000000000000000000000000000000000000000000000000000000008114908115611c28575b5015158152f35b7f01ffc9a70000000000000000000000000000000000000000000000000000000091501438611c21565b602435906001600160a01b0382168203611c6857565b600080fd5b600435906001600160a01b0382168203611c6857565b906004821015611c905752565b634e487b7160e01b600052602160045260246000fd5b6040906003190112611c68576004359060243590565b8054821015611cd45760005260206000200190600090565b634e487b7160e01b600052603260045260246000fd5b906004811015611c905760ff80198354169116179055565b60c0810190811067ffffffffffffffff821117611d1e57604052565b634e487b7160e01b600052604160045260246000fd5b610140810190811067ffffffffffffffff821117611d1e57604052565b90601f8019910116810190811067ffffffffffffffff821117611d1e57604052565b6000198114611d825760010190565b634e487b7160e01b600052601160045260246000fd5b6004821015611c905752565b81810292918115918404141715611d8257565b91908201809211611d8257565b805468010000000000000000811015611d1e57611de691600182018155611cbc565b819291549060031b91821b91600019901b1916179055565b3360009081527fee57cd81e84075558e8fcc182a1f4393f91fc97f963a136e66b7f949a62f319f602052604090205460ff1615611e3757565b63e2517d3f60e01b600052336004527f97667070c54ef182b0f5858b034beac1b6f3089aa2d3188bb1e8929f4fa9b92960245260446000fd5b3360009081527f7d7ffb7a348e1c6a02869081a26547b49160dd3df72d1d75a570eb9b698292ec602052604090205460ff1615611ea957565b63e2517d3f60e01b600052336004527fa49807205ce4d355092ef5a8a18f56e8913cf4a201fbe287825b095693c2177560245260446000fd5b80600052600060205260406000206001600160a01b03331660005260205260ff6040600020541615611f115750565b63e2517d3f60e01b6000523360045260245260446000fd5b60ff60015416611f3557565b7fd93c06650000000000000000000000000000000000000000000000000000000060005260046000fd5b6002805414611f6e5760028055565b7f3ee5aeb50000000000000000000000000000000000000000000000000000000060005260046000fd5b60005260076020526040600020604051611fb181611d34565b6001600160a01b03825416815260018201546020820152600282015491604082019283526003810154606083015260048101546080830152611ffd60ff60058301541660a08401611d98565b600681015460c083015260078101549160e08101928352610120600960088401549384610100850152015491015262015180810290808204620151801490151715611d825761205961205e9264496cebb8009451905190611da4565b611da4565b0490565b80600052600060205260406000206001600160a01b03831660005260205260ff60406000205416156000146120f55780600052600060205260406000206001600160a01b0383166000526020526040600020600160ff198254161790556001600160a01b03339216907f2f8788117e7eff1d82e926ec794901d17c78024a50270940304540a733656f0d600080a4600190565b5050600090565b80600052600060205260406000206001600160a01b03831660005260205260ff604060002054166000146120f55780600052600060205260406000206001600160a01b038316600052602052604060002060ff1981541690556001600160a01b03339216907ff6391f5c32d9c69d2a47ea670b442974b53935d1edc7fd64eb21e047a839171b600080a460019056fea26469706673582212206f3cc945f5f8dda32a44bbbaa000158cc7425511a4d5c688c2106076dd96313c64736f6c634300081c00332f8788117e7eff1d82e926ec794901d17c78024a50270940304540a733656f0d7d7ffb7a348e1c6a02869081a26547b49160dd3df72d1d75a570eb9b698292ecee57cd81e84075558e8fcc182a1f4393f91fc97f963a136e66b7f949a62f319f",
  "devdoc": {
    "details": "Khng gi tin, tt c tin c gi  PrincipalVault v InterestVault",
    "errors": {
      "AccessControlBadConfirmation()": [
        {
          "details": "The caller of a function is not the expected one. NOTE: Don't confuse with {AccessControlUnauthorizedAccount}."
        }
      ],
      "AccessControlUnauthorizedAccount(address,bytes32)": [
        {
          "details": "The `account` is missing a role."
        }
      ],
      "EnforcedPause()": [
        {
          "details": "The operation failed because the contract is paused."
        }
      ],
      "ExpectedPause()": [
        {
          "details": "The operation failed because the contract is not paused."
        }
      ],
      "ReentrancyGuardReentrantCall()": [
        {
          "details": "Unauthorized reentrant call."
        }
      ]
    },
    "events": {
      "Paused(address)": {
        "details": "Emitted when the pause is triggered by `account`."
      },
      "RoleAdminChanged(bytes32,bytes32,bytes32)": {
        "details": "Emitted when `newAdminRole` is set as ``role``'s admin role, replacing `previousAdminRole` `DEFAULT_ADMIN_ROLE` is the starting admin for all roles, despite {RoleAdminChanged} not being emitted to signal this."
      },
      "RoleGranted(bytes32,address,address)": {
        "details": "Emitted when `account` is granted `role`. `sender` is the account that originated the contract call. This account bears the admin role (for the granted role). Expected in cases where the role was granted using the internal {AccessControl-_grantRole}."
      },
      "RoleRevoked(bytes32,address,address)": {
        "details": "Emitted when `account` is revoked `role`. `sender` is the account that originated the contract call:   - if using `revokeRole`, it is the admin role bearer   - if using `renounceRole`, it is the role bearer (i.e. `account`)"
      },
      "Unpaused(address)": {
        "details": "Emitted when the pause is lifted by `account`."
      }
    },
    "kind": "dev",
    "methods": {
      "getRoleAdmin(bytes32)": {
        "details": "Returns the admin role that controls `role`. See {grantRole} and {revokeRole}. To change a role's admin, use {_setRoleAdmin}."
      },
      "grantRole(bytes32,address)": {
        "details": "Grants `role` to `account`. If `account` had not been already granted `role`, emits a {RoleGranted} event. Requirements: - the caller must have ``role``'s admin role. May emit a {RoleGranted} event."
      },
      "hasRole(bytes32,address)": {
        "details": "Returns `true` if `account` has been granted `role`."
      },
      "paused()": {
        "details": "Returns true if the contract is paused, and false otherwise."
      },
      "renounceRole(bytes32,address)": {
        "details": "Revokes `role` from the calling account. Roles are often managed via {grantRole} and {revokeRole}: this function's purpose is to provide a mechanism for accounts to lose their privileges if they are compromised (such as when a trusted device is misplaced). If the calling account had been revoked `role`, emits a {RoleRevoked} event. Requirements: - the caller must be `callerConfirmation`. May emit a {RoleRevoked} event."
      },
      "revokeRole(bytes32,address)": {
        "details": "Revokes `role` from `account`. If `account` had been granted `role`, emits a {RoleRevoked} event. Requirements: - the caller must have ``role``'s admin role. May emit a {RoleRevoked} event."
      },
      "supportsInterface(bytes4)": {
        "details": "See {IERC165-supportsInterface}."
      }
    },
    "title": "SavingBankV3",
    "version": 1
  },
  "userdoc": {
    "kind": "user",
    "methods": {
      "createPlan(uint256,uint256,uint256,uint256,uint256)": {
        "notice": "Operator to plan mi"
      },
      "earlyWithdraw(uint256)": {
        "notice": "Early withdraw with penalty"
      },
      "openDepositCertificate(uint256,uint256)": {
        "notice": "Open a new deposit certificate"
      },
      "renew(uint256,uint256)": {
        "notice": "Renew deposit at maturity to a new plan (compound)"
      },
      "updatePlan(uint256,uint256,uint256,uint256,uint256,uint256)": {
        "notice": "Operator update plan"
      },
      "updatePlanStatus(uint256,bool)": {
        "notice": "Operator update plan status"
      },
      "withdraw(uint256)": {
        "notice": "Withdraw at maturity (principal + interest)"
      }
    },
    "notice": "Saving Bank vi Access Control v 2 vault ring bit",
    "version": 1
  },
  "storageLayout": {
    "storage": [
      {
        "astId": 26,
        "contract": "contracts/SavingBank_v2.sol:SavingBankV2",
        "label": "_roles",
        "offset": 0,
        "slot": "0",
        "type": "t_mapping(t_bytes32,t_struct(RoleData)21_storage)"
      },
      {
        "astId": 3373,
        "contract": "contracts/SavingBank_v2.sol:SavingBankV2",
        "label": "_paused",
        "offset": 0,
        "slot": "1",
        "type": "t_bool"
      },
      {
        "astId": 3483,
        "contract": "contracts/SavingBank_v2.sol:SavingBankV2",
        "label": "_status",
        "offset": 0,
        "slot": "2",
        "type": "t_uint256"
      },
      {
        "astId": 9960,
        "contract": "contracts/SavingBank_v2.sol:SavingBankV2",
        "label": "nft",
        "offset": 0,
        "slot": "3",
        "type": "t_contract(ISavingBankNFT)9853"
      },
      {
        "astId": 9962,
        "contract": "contracts/SavingBank_v2.sol:SavingBankV2",
        "label": "nextPlanId",
        "offset": 0,
        "slot": "4",
        "type": "t_uint256"
      },
      {
        "astId": 9964,
        "contract": "contracts/SavingBank_v2.sol:SavingBankV2",
        "label": "nextDepositId",
        "offset": 0,
        "slot": "5",
        "type": "t_uint256"
      },
      {
        "astId": 9969,
        "contract": "contracts/SavingBank_v2.sol:SavingBankV2",
        "label": "savingPlans",
        "offset": 0,
        "slot": "6",
        "type": "t_mapping(t_uint256,t_struct(SavingPlan)9932_storage)"
      },
      {
        "astId": 9974,
        "contract": "contracts/SavingBank_v2.sol:SavingBankV2",
        "label": "depositCertificates",
        "offset": 0,
        "slot": "7",
        "type": "t_mapping(t_uint256,t_struct(DepositCertificate)9954_storage)"
      },
      {
        "astId": 9979,
        "contract": "contracts/SavingBank_v2.sol:SavingBankV2",
        "label": "userDepositIds",
        "offset": 0,
        "slot": "8",
        "type": "t_mapping(t_address,t_array(t_uint256)dyn_storage)"
      },
      {
        "astId": 9982,
        "contract": "contracts/SavingBank_v2.sol:SavingBankV2",
        "label": "principalVault",
        "offset": 0,
        "slot": "9",
        "type": "t_contract(IPrincipalVault)9807"
      },
      {
        "astId": 9985,
        "contract": "contracts/SavingBank_v2.sol:SavingBankV2",
        "label": "interestVault",
        "offset": 0,
        "slot": "10",
        "type": "t_contract(IInterestVault)9829"
      },
      {
        "astId": 9987,
        "contract": "contracts/SavingBank_v2.sol:SavingBankV2",
        "label": "feeReceiver",
        "offset": 0,
        "slot": "11",
        "type": "t_address"
      }
    ],
    "types": {
      "t_address": {
        "encoding": "inplace",
        "label": "address",
        "numberOfBytes": "20"
      },
      "t_array(t_uint256)dyn_storage": {
        "base": "t_uint256",
        "encoding": "dynamic_array",
        "label": "uint256[]",
        "numberOfBytes": "32"
      },
      "t_bool": {
        "encoding": "inplace",
        "label": "bool",
        "numberOfBytes": "1"
      },
      "t_bytes32": {
        "encoding": "inplace",
        "label": "bytes32",
        "numberOfBytes": "32"
      },
      "t_contract(IInterestVault)9829": {
        "encoding": "inplace",
        "label": "contract IInterestVault",
        "numberOfBytes": "20"
      },
      "t_contract(IPrincipalVault)9807": {
        "encoding": "inplace",
        "label": "contract IPrincipalVault",
        "numberOfBytes": "20"
      },
      "t_contract(ISavingBankNFT)9853": {
        "encoding": "inplace",
        "label": "contract ISavingBankNFT",
        "numberOfBytes": "20"
      },
      "t_enum(DepositStatus)9919": {
        "encoding": "inplace",
        "label": "enum SavingBankV2.DepositStatus",
        "numberOfBytes": "1"
      },
      "t_mapping(t_address,t_array(t_uint256)dyn_storage)": {
        "encoding": "mapping",
        "key": "t_address",
        "label": "mapping(address => uint256[])",
        "numberOfBytes": "32",
        "value": "t_array(t_uint256)dyn_storage"
      },
      "t_mapping(t_address,t_bool)": {
        "encoding": "mapping",
        "key": "t_address",
        "label": "mapping(address => bool)",
        "numberOfBytes": "32",
        "value": "t_bool"
      },
      "t_mapping(t_bytes32,t_struct(RoleData)21_storage)": {
        "encoding": "mapping",
        "key": "t_bytes32",
        "label": "mapping(bytes32 => struct AccessControl.RoleData)",
        "numberOfBytes": "32",
        "value": "t_struct(RoleData)21_storage"
      },
      "t_mapping(t_uint256,t_struct(DepositCertificate)9954_storage)": {
        "encoding": "mapping",
        "key": "t_uint256",
        "label": "mapping(uint256 => struct SavingBankV2.DepositCertificate)",
        "numberOfBytes": "32",
        "value": "t_struct(DepositCertificate)9954_storage"
      },
      "t_mapping(t_uint256,t_struct(SavingPlan)9932_storage)": {
        "encoding": "mapping",
        "key": "t_uint256",
        "label": "mapping(uint256 => struct SavingBankV2.SavingPlan)",
        "numberOfBytes": "32",
        "value": "t_struct(SavingPlan)9932_storage"
      },
      "t_struct(DepositCertificate)9954_storage": {
        "encoding": "inplace",
        "label": "struct SavingBankV2.DepositCertificate",
        "members": [
          {
            "astId": 9934,
            "contract": "contracts/SavingBank_v2.sol:SavingBankV2",
            "label": "owner",
            "offset": 0,
            "slot": "0",
            "type": "t_address"
          },
          {
            "astId": 9936,
            "contract": "contracts/SavingBank_v2.sol:SavingBankV2",
            "label": "planId",
            "offset": 0,
            "slot": "1",
            "type": "t_uint256"
          },
          {
            "astId": 9938,
            "contract": "contracts/SavingBank_v2.sol:SavingBankV2",
            "label": "principal",
            "offset": 0,
            "slot": "2",
            "type": "t_uint256"
          },
          {
            "astId": 9940,
            "contract": "contracts/SavingBank_v2.sol:SavingBankV2",
            "label": "startAt",
            "offset": 0,
            "slot": "3",
            "type": "t_uint256"
          },
          {
            "astId": 9942,
            "contract": "contracts/SavingBank_v2.sol:SavingBankV2",
            "label": "maturityAt",
            "offset": 0,
            "slot": "4",
            "type": "t_uint256"
          },
          {
            "astId": 9945,
            "contract": "contracts/SavingBank_v2.sol:SavingBankV2",
            "label": "status",
            "offset": 0,
            "slot": "5",
            "type": "t_enum(DepositStatus)9919"
          },
          {
            "astId": 9947,
            "contract": "contracts/SavingBank_v2.sol:SavingBankV2",
            "label": "renewedDepositId",
            "offset": 0,
            "slot": "6",
            "type": "t_uint256"
          },
          {
            "astId": 9949,
            "contract": "contracts/SavingBank_v2.sol:SavingBankV2",
            "label": "snapshotAprBps",
            "offset": 0,
            "slot": "7",
            "type": "t_uint256"
          },
          {
            "astId": 9951,
            "contract": "contracts/SavingBank_v2.sol:SavingBankV2",
            "label": "snapshotTenorDays",
            "offset": 0,
            "slot": "8",
            "type": "t_uint256"
          },
          {
            "astId": 9953,
            "contract": "contracts/SavingBank_v2.sol:SavingBankV2",
            "label": "snapshotEarlyWithdrawPenaltyBps",
            "offset": 0,
            "slot": "9",
            "type": "t_uint256"
          }
        ],
        "numberOfBytes": "320"
      },
      "t_struct(RoleData)21_storage": {
        "encoding": "inplace",
        "label": "struct AccessControl.RoleData",
        "members": [
          {
            "astId": 18,
            "contract": "contracts/SavingBank_v2.sol:SavingBankV2",
            "label": "hasRole",
            "offset": 0,
            "slot": "0",
            "type": "t_mapping(t_address,t_bool)"
          },
          {
            "astId": 20,
            "contract": "contracts/SavingBank_v2.sol:SavingBankV2",
            "label": "adminRole",
            "offset": 0,
            "slot": "1",
            "type": "t_bytes32"
          }
        ],
        "numberOfBytes": "64"
      },
      "t_struct(SavingPlan)9932_storage": {
        "encoding": "inplace",
        "label": "struct SavingBankV2.SavingPlan",
        "members": [
          {
            "astId": 9921,
            "contract": "contracts/SavingBank_v2.sol:SavingBankV2",
            "label": "tenorDays",
            "offset": 0,
            "slot": "0",
            "type": "t_uint256"
          },
          {
            "astId": 9923,
            "contract": "contracts/SavingBank_v2.sol:SavingBankV2",
            "label": "aprBps",
            "offset": 0,
            "slot": "1",
            "type": "t_uint256"
          },
          {
            "astId": 9925,
            "contract": "contracts/SavingBank_v2.sol:SavingBankV2",
            "label": "minDeposit",
            "offset": 0,
            "slot": "2",
            "type": "t_uint256"
          },
          {
            "astId": 9927,
            "contract": "contracts/SavingBank_v2.sol:SavingBankV2",
            "label": "maxDeposit",
            "offset": 0,
            "slot": "3",
            "type": "t_uint256"
          },
          {
            "astId": 9929,
            "contract": "contracts/SavingBank_v2.sol:SavingBankV2",
            "label": "earlyWithdrawPenaltyBps",
            "offset": 0,
            "slot": "4",
            "type": "t_uint256"
          },
          {
            "astId": 9931,
            "contract": "contracts/SavingBank_v2.sol:SavingBankV2",
            "label": "enabled",
            "offset": 0,
            "slot": "5",
            "type": "t_bool"
          }
        ],
        "numberOfBytes": "192"
      },
      "t_uint256": {
        "encoding": "inplace",
        "label": "uint256",
        "numberOfBytes": "32"
      }
    }
  }
}